:400000000040002011000000010D0000010D000080B500AF00F07EFE80B500AF294B12221A6002F0EBFF284B181C03F0FDF9012002F0F4FF302002F0FDFD244B244A1A60D8
:40004000244B8022D2051A60234B234A126802210A431A60214B224A1A60224B00221A60214B214A126808218A431A60FA23DB00181C02F02BFE1D4B181C02F09FFE1C4BEA
:40008000E82252011A601B4B1B4A1A601B4BC82252011A60174B1A4A1A601A4B822212061A60194B802212031A60184B41221A60174B40221A60074B8022D2051A60BD46D1
:4000C00080BDC04630001040001BB70004010B40060000800C020B4078002E407C002E406A2D000064F02E406CF02E40DC050000040301400000014041FF008000030140DB
:4001000040FF008008010B4000010B40180101400401014080B582B000AF72B6494B00221A60FB1D00221A7023E0FB1D1A78131C5B009B185B00444A9B183B603B681A7838
:40014000597809020A43997809040A43DB781B061343191C3B681A795B791B0213439BB2081C191C00F05AFEFB1D1A78FB1D01321A70FB1D1B78012BD7D9344BEE221206D4
:400180001A60334B992212041A60324B992212041A60314B992212041A60304B992212041A602F4B992212041A602E4A2D4B1B78DBB202210B43DBB213702B4A2A4B1B78D4
:4001C000DBB23C218B43DBB214210B43DBB21370244A244B1B78DBB216210B43DBB21370224B12221A60224B224A1A60224B08221A60224B20221A60214BC42292021A608D
:40020000204B20221A60204B44221A601F4B204A1A60204B20221A601F4BE1221A601F4BB222D2031A601E4B882212021A601D4B01221A60FFF7F0FE00F000FEBD4602B036
:4002400080BDC0466CF02E40AC5A0100000002400001024000500F4010500F4020500F4030500F4000700F4001700F4000000440080004401060D8000C000440000104401D
:4002800008010440180104400002044008020440800018000C02044000030440080304400C0304401803044010B5064C2378002B07D1054B002B02D0044800E000BF0123BD
:4002C000237010BDB811002000000000485A010008B5084B002B03D00748084900E000BF07480368002B00D108BD064B002BFBD09847F9E700000000485A0100BC110020B4
:40030000280C00200000000080B500AF02F066FC03F046F8BD4680BD90B58BB000AF786039607B68262B00D16EE022D8052B00D1BEE00DD8022B00D1BCE002D8012B3ED0A1
:40034000CFE0032B00D1B7E0042B00D1B6E0C8E0232B00D1B4E006D8212B00D1B2E0222B00D1B1E0BDE0242B4BD0252B00D1ADE0B7E0412B00D18AE010D8292B00D1A7E084
:4003800005D8272B52D0282B00D168E0A9E02A2B00D19FE02C2B00D19EE0A2E04C2B00D16BE005D8422B00D178E0432B5FD098E0572B00D192E0FA2B00D191E091E01E2331
:4003C000FC18002000F0DAFF031C23801023FB1800229A711023FB18181C03F081FE2723FB1806221A7006E02723FB181A782723FB18013A1A702723FB181B78002BF3D1FA
:400400006FE03B68BB616CE0374B1B78042B0CD1012002F001FB012002F024FB02F0DEFB02F06CFB02F06AFD5BE05AE000233B620EE0002002F0F0FA642002F09BFC012036
:4004400002F0EAFA642002F095FC3B6A01333B623B6A042BEDDD012002F0DEFA41E01E23FC18002000F08AFF031C238039E00E23FB18181C0FF05AFA33E03B680433181CCA
:4004800000F0EAF93B6818680FF0AEFE29E000F06DFA00F0D7F900F00DFC22E0134B00221A70134B00221A80124B00221A8018E0C04616E0C04614E0C04612E0C04610E067
:4004C000C0460EE0C0460CE0C0460AE0C04608E0C04606E0C04604E0C04602E0C04600E0C046BD460BB090BD52230020DC110020DA110020D811002080B500AF02F0F0FE09
:40050000021C8023DB00134025D0224B1B78032B17D1214B1B685A1E1F4B1A601E4B1B68002B0ED11C4B0A221A601C4B1B7801225340DAB2194B1A70184B1B78181C02F02D
:400540006BFA174B1B685A1C154B1A608023DB00181C02F0D3FE134B1B889BB201339AB2104B1A800F4B1B889BB2181C0A2103F03BFC0B1C9BB2002B0AD1064B1B78022B4B
:4005800006D1094B1B889BB201339AB2064B1A80BD4680BD522300202C0C0020300C0020D4110020D8110020DA11002080B500AF02F07EFD0E4B181C02F0D6F90120012131
:4005C00002F0B4FD0120012102F0DCFD094B0120191C02F03DFE012002F0C8FE80235B00181C02F005FE02F039FDBD4680BDC046F9040000CC0C000090B583B000AF194BA5
:400600001B78032B03D0174B1B78022B27D1FC1D032003F05DFD031C2370BC1D02F00DFF031C2370FB1D1B78032B0CD105F04EFD031E042B04D005F049FD031E062B09D1C7
:4006400002F026FC06E005F041FD031E022B01D002F004FCBB1D1B78181C02F0F2FEBD4603B090BD5223002090B585B000AF5B4B181C02F055FA62B6012002F019FA012080
:4006800002F0CAF9012002F0EDF9554B181C00F0FBFCFFF78BFF534B1B889BB2002B06D1514B1B889AB29623DB009A420AD84D4B1B889BB2002B1FD04B4B1B889BB24B4A27
:4006C000934219D90023FB600EE0002002F0A4F90A2002F04FFB012002F09EF90A2002F049FBFB680133FB60FB68092BEDDD02F005FC3D4B00221A803A4B1B889BB20A2B74
:4007000003D93B4B1B78002B08D0364B1B889BB23C2B24D9364B1B78022B20D13B1C18221A803B1C28225A803B1C19229A803B1C0622FF32DA802F4B1A780A23FC183B1CBA
:40074000101C191C0CF042FC031C2380284B1B780133DAB2264B1A70224B01221A80244B1B78012B08D11F4B1B889BB2022B03D11F4B02221A700BE01D4B1B78032B07D1CB
:40078000184B1B889BB2022B02D1194B01221A7003F0AAFCFFF730FF174B1B78022B1BD1164B1B78002B17D0154B1B68002B08D0134B00221A60134B1B88012B01D100F034
:4007C0001BF9114B1B78002B06D00823FC18002000F0F4FC031C23805DE7C0460903000019030000DA110020D811002050460000DC1100205823002052230020350C00203A
:40080000D4110020382300203C23002080B584B000AF786039600F23FB183A6892781A707B68233BFF3B052B04D89A00044BD3181B689F46C04600E0C046BD4604B080BD12
:400840004C5A010080B500AF024B181C00F03CFBBD4680BD0D08000080B584B000AF78600E23FB1800221A8008E00E23FB181B889BB201339AB20E23FB181A800E23FB1842
:4008800000229B5E7A6892889342EEDBBD4604B080BDC04680B584B000AF786039603B68FB607B68873BFF3B0B2B50D89A002B4BD3181B689F46FB689B78002B03D1284B7A
:4008C00001221A8046E045E0FB689B78002B03D1234B00221A803DE03CE0224B00221A7038E0204B01221A7034E01F4B00221A7030E01D4B01221A702CE0FB689B78002BD3
:400900001FD1184B1B78012B03D1FB68DB78082B07D0144B1B78002B13D1FB68DB78052B0FD1FB685B681B681B7802221340DBB2002B03D0002002F095F802E0012002F078
:4009400091F8FB685B68181CFFF786FF02E0C04600E0C046BD4604B080BDC046645A010038230020340C0020350C002090B585B002AF1F4B181C01F0F9F81E4B00221A8086
:40098000BC1D3B1D0093002007210022022301F0C9FA031C2380BB1D1B88002B0AD13B1D1B88002B06D0134B1B88012213439AB2104B1A80BC1D3B1D00930020042100220B
:4009C000022301F0AFFA031C2380BB1D1B88002B0AD13B1D1B88002B06D0064B1B88012213439AB2034B1A80BD4603B090BDC046950800003823002090B585B002AF02F01A
:400A0000E7FC031E19D1834B00221A80824B1B780133DAB2804B1A707F4B1B78012B0FD17E4B4E22DA707E4B01221A707A4B1B780133DAB2784B1A7002E0774B00221A70B2
:400A400002F0D4FC031E19D1724B00221A80754B1B780133DAB2734B1A70724B1B78012B0FD16E4B4B22DA706D4B01221A706D4B1B780133DAB26B4B1A7002E0694B0022A1
:400A80001A7002F0C1FC031E19D1624B00221A80654B1B780133DAB2634B1A70624B1B78012B0FD15D4B0522DA705D4B01221A705D4B1B780133DAB25B4B1A7002E05A4BE2
:400AC00000221A70594B1B78DBB2002B00D09EE0534B1B78012B00D099E0BC1D544B00200021012201F036F9031C2380BB1D1B88002B00D07FE07B1D00221A7004E07B1D14
:400B00001A787B1D01321A707B1D1B78072BF6D9474B1B78002B16D1BC1D464B3F4A00921A785B781B021A4300231204120C1B0C1B041343181C00210422082301F004FD7C
:400B4000031C238015E0BC1D3A4B344A00921A785B781B021A4300231204120C1B0C1B041343181C00210722082301F0EDFC031C2380BB1D1B88002B36D1284B00229A70ED
:400B8000264B0022DA702A4B1B78002B16D1BC1D284B224A00921A785B781B021A4300231204120C1B0C1B041343181C00210422082301F0C9FC031C238015E0BC1D1D4BCE
:400BC000164A00921A785B781B021A4300231204120C1B0C1B041343181C00210722082301F0B2FC031C2380BB1D1B88002B02D0114B00221A800A4B00221A70002001F085
:400C00000BFF012002F0B6F8012001F005FFBD4603B090BDD8110020E1110020E4110020E0110020EC110020ED11002054230020340C0020582300203823002080B582B0E0
:400C400000AF786039607B68E93BFF3B052B22D89A00144BD3181B689F46134B01221A801CE0114B00221A8018E03B685B681B68181C00F01DFC031C1A1C0C4B1A803B6867
:400C80005B681B680233181C00F012FC031C1A1C074B1A8002E0C04600E0C046BD4602B080BDC046945A0100F0110020F2110020F411002090B583B000AF0F4B181C01F082
:400CC0006BFDBC1D3B1D01200021022201F070FD031C2380BB1D1B88002B0AD13B1D1B88002B06D0054B1B88012213439AB2034B1A80BD4603B090BD3D0C0000F01100204B
:400D000080B500AF03F06CF9031C1B680C2B00D1FEE7FEE780B586B000AF224B7B61224B3B61204B7B6135E03B691B68FB603B695B68BB603B699B683B6000237B600CE00B
:400D4000FB681A68BB681A60BB680433BB60FB680433FB607B6804337B607A683B689A42EED13B69DB683B6000237B6008E0BB6800221A60BB680433BB607B6804337B60E1
:400D80007A683B689A42F2D13B6910333B617B69013B7B617B69002BC6D103F027F9FFF763FCFEE701000000885F010080B582B000AF154B144A126801218A431A600023DA
:400DC0007B600FE07B68032B04D8104B7A689200D35800E00E4B0F4A796889008B507B6801337B607B682F2BECD9FFF793F90A4B00221A60044B044A126801210A431A6004
:400E0000BD4602B080BDC0460000104000000000010D000000000020C000002080B582B000AF786039607A683B68101C00211A1C03F01AF9BD4602B080BDC04680B500AFEB
:400E40000A4B03221A600A4B03221A60094B802212061A60084B01221A60084B00221A60012000F00DF8BD4680BDC046300030403000314000003A4000033A40000E3F4002
:400E800080B584B000AF021CFB1D1A700B4B1B68FB60FB1D1B78002B05D0FB68802212061343FB6003E0FB685B005B08FB60034BFA681A60BD4604B080BDC04680033A402D
:400EC00080B500AFBD4680BD80B582B000AF7860024B7A681A60BD4602B080BDF811002090B587B000AF78601723FB1800221A701623FB1800221A70474B1B68002B00D117
:400F000082E07B689B892C22934270D11723FB181B78424ADB00D3185B885A1E4049131C9B009B189B00CB185A6880235B03134050D07B681A1D7B6816217C18101C002188
:400F40001A1C40230FF0D2FE031C23701623FB181B78002B42D10C23FB187A6812881A800C23FB181722BA1812789A700C23FB180022DA700C23FB1800225A607B685B688F
:400F8000181C00F095FA031C1A1C012313409BB2002B09D0204B1B68912251000C22BA18081C111C984709E01B4B1B682422FF32111C0C22BA18081C111C9847194B1B78A2
:400FC000012B0BD1184B1B7802221343DAB2164B1A7003E01623FB1806221A70134B1B78DBB201229343DAB2104B1A700CE01723FB181A781723FB1801321A701723FB1817
:401000001B78002B00D17CE71623FB181B78181CBD4607B090BDC046F8110020B85A0100DC5A0100442300203C2300205B23002080B500AF094B00221A70094B00221A70A3
:40104000084B00221A7000F013F8074B00221A70064B00221A70BD4680BDC0465B230020542300205A2300203C2300204423002080B500AFFFF724FF01F072FC00F072FDA2
:4010800001F086FBBD4680BDB0B594B004AF78603E23FB1800221A802823FA183E4B111C1A1C1423081C111C1A1C02F0D4FF3B4B1B78002B04D1FFF7BBFF384B01221A7055
:4010C0007B68002B5CD0364B7A681A603E23FB181B88002B29D11023FB181C22BA185A601023FB182022BA181A601023FB1800221A812023FB181B221A802023FB181B22F6
:401100005A802023FB1804221A711C23FB1800221A703E23FC181023FA180E23FB18101C191C03F0BDF8031C23803E23FB181B88002B29D13E23FC181A481B49AE231A01A4
:401140002823FD1805230093184B0193184B02932B1C02F0FBFF031C23803E23FB181B88002B11D1134B01221A703E23FC18124B181C32213F220FF06BFD031C238003E07B
:401180003E23FB1801221A803E23FB181B88181CBD4610B0B0BDC046C05A0100FC1100204023002029170000C8000020006801007902000052230020DC5A010090B593B052
:4011C00000AF021CFB1D1A704623FB1800221A80644B1B781A1C012313401ED04623FC18FB1D1B78181C0AF03BFD031C23804623FB181B88002B10D15A4B1B7801229343BF
:40120000DAB2584B1A70574B1B781A1C0223134003D04623FB1828221A804623FB181B88002B03D0FB1D1B78002B2ED04D4B1B781A1C0223134028D04B4B1B78042B24D8C9
:40124000494B1B781A1C131C9B009B185B009E2292009A18454BD3185A1C4623FC184449FB1D1B78081C111C0A220AF0DFFC031C23804623FB181B88002B06D1394B1B7843
:4012800002229343DAB2374B1A704623FB181B88002B03D0FB1D1B78002B5CD0314B1B781A1C0C23134056D02E4B1B781A1C0823134022D00823FB18181C0021322202F005
:4012C000D3FE4623FC180823F9182A4AFB1D1B78081C111C32220AF0A9FC031C23804623FB181B88002B07D11E4B1B7808229343DAB21C4B1A702EE02DE03C23FB180022F5
:401300001A6000225A6000221A811B4B1B781A1C131C9B009B185B009E2292009A18134BD3185A1C4623FC183C23F918FB1D1B78081C111C0A220AF079FC031C2380462321
:40134000FB181B88002B06D1064B1B7804229343DAB2044B1A704623FB181B88181CBD4613B090BD3C230020582300200068010048230020796A0100FD11002090B585B070
:4013800000AF021CFB1D1A70FB1D1B78022B04D90E23FB1801221A804BE0294B1B78042B42D1284B1B78DBB21A1C042313403BD1FB1D1B78002B0BD1234B1E221A82224BDC
:4013C0005B6820221A80204B5B6820225A8010E0FB1D1B78012B0CD11B4B96221A821A4B5B68C822D2001A80174B5B68C822D2005A80164BFA1D12781A700E23FC18124B3F
:40140000181C0DF029FD031C23800E23FB181B88002B08D10B4B1B78DBB204221343DAB2084B1A7005E004E00E23FB180422FF321A800E23FB181B88181CBD4605B090BD2F
:40144000522300205B2300208C0C00205A23002080B584B000AF78600A1CFB1C1A700023BB60BB68002B20D07B689A79BB681A700F23FB1800221A7012E00F23FB181B7853
:401480000133BA68D3180F22BA18127879688A5C1A700F23FB181A780F23FB1801321A700F23FB181B78052BE7D9BD4604B080BD80B582B000AF78607B681B789AB27B68E5
:4014C00001331B789BB21B029BB213439BB2181CBD4602B080BDC04690B585B000AF78600F23FB1800221A707B689B890B22934237D17B681A1D7B680F217C18101C00218E
:401500001A1C40230FF0F2FB031C23700F23FB181B78002B1DD17B685B68181CFFF7C8FF031C1A1C022313409BB2002B08D0104B1B68822251007A68081C111C984708E002
:401540000B4B1B680622FF32111C7A68081C111C9847084B1B78DBB201229343DAB2054B1A700F23FB181B78181CBD4605B090BD402300205B23002090B585B000AF7860F5
:401580000F23FC187B68181CFFF7A6FF031C2370324B1B78DBB21A1C012313400CD00F23FB181B78002B07D10F23FC187B68181CFFF796FC031C2370284B1B78DBB21A1C20
:4015C000012313400CD00F23FB181B78002B07D10F23FC187B68181C00F0AAFD031C23701E4B1B78DBB21A1C012313400CD00F23FB181B78002B07D10F23FC187B68181CCD
:4016000001F022F9031C2370144B1B78DBB21A1C012313401FD10F23FB181B78002B16D00823FB1812229A707B689A890823FB181A800823FB180F22BA181278DA707B6895
:401640000822BA181868111C0EF03AFD03E07B6818680EF0C9FDBD4605B090BD5B23002080B582B000AF7860BD4602B080BDC04680B500AF034B00225A70024B00221A70E2
:40168000BD4680BD5823002080B582B000AF7860BD4602B080BDC04680B500AF01F03EF8BD4680BD80B584B000AF78600E23FB1800221A707B689B79002B1CD10F23FB18EA
:4016C00000221A7012E00F23FB181B787A68D35C002B04D00E23FB1801221A700BE00F23FB181A780F23FB1801321A700F23FB181B78052BE7D90E23FB181B78181CBD46D9
:4017000004B080BD80B582B000AF021CBB1D1A80BD4602B080BDC04680B582B000AF7860BD4602B080BDC04680B588B000AF021C3960FB1D1A70C74B1B78DBB20122134314
:40174000DAB2C44B1A70FB1D1B78412B00D157E123DC212B00D1C1E00DDC022B00D193E002DC012B3BD0DDE1052B00D191E0062B00D193E0D6E1272B00D1E9E006DC242B7F
:4017800000D1DBE0262B00D1EEE0CBE1282B00D1E6E02A2B00D1D6E0C4E14F2B00D1BCE10BDC432B00D171E100DA4FE14C2B00D189E14E2B00D18BE1B4E1572B00D1AEE14D
:4017C00006DC502B00D1ACE1542B00D198E1A9E1712B00D10EE1FA2B00D196E1A2E11423FB1807221A701423FB1800225A701423FB18181C04F0DCFC1423FB1807221A7015
:401800001423FB1801225A701423FB18181C04F0CFFC914B1B68181CFFF744FF031E11D08D4B1B68181C02F063FC8B4B1B68181C0021FFF70DFE884B1B68181C0121FFF735
:4018400007FE0DE0854B181C02F052FC834B181C0021FFF7FDFD814B181C0121FFF7F8FD03200DF0A7F91023FB183F221A701023FB1800225A701023FB18181C0DF0B8F9C7
:40188000774B04221A704DE13B68181CFFF7FCFE48E13B681A78734B1A7043E13B68BB61BB691B78002B18D1BB695B78002B0BD16D4B0422DA806C4B40229A806A4B6B4A9A
:4018C0001A60BB69684A5A60624B1B78DBB201229343DAB25F4B1A7024E123E15D4B1B78DBB21A1C2023134027D1614B1B78102B02D15F4B0522DA705E4B1A785C4B101C4D
:40190000191C0DF067FA031C1A1C0E23FB181A800E23FB181B88002B06D0574B1B680E22BA183620111C98474A4B1B78DBB201221343DAB2474B1A70F4E0F3E03B685A787E
:401940004E4B1A70EEE03B68181CFFF7E5FEE9E03B68181CFFF7E0FE414B02221A70E1E03F4B04221A70DDE03D4B1B78022B40D0384B1B78DBB21A1C0123134039D0354B2F
:401980001B78DBB21A1C042313400BD0344B03221A70304B1B78DBB204229343DAB22D4B1A7026E02B4B1B78DBB21A1C082313400BD02B4B04221A70264B1B78DBB208221D
:4019C0009343DAB2234B1A7013E0254B1B78032B0FD1234B04221A70294B1B78002B08D10120FFF7CBFC031E03D11D4B03221A7098E097E03B681B88181CFFF783FE91E025
:401A00001C4A3B68111C1A1C0223081C111C1A1C02F021FB134B00221A70164B1B781A1C131C9B009B185B009E2292009A18154BD3180133144A111C1A1C0A23081C111CB2
:401A40001A1C02F008FBFFF727FE6BE0FFF710FE68E0C0465B230020A80C0020A00C0020522300205423002000120020A80B0020200E002058230020402300204423002021
:401A80005A23002000680100482300203B685B88162B05D81E23FB183A6852881A8003E01E23FB1817221A803B681E22BA1811881A8800231204120C1B0C1B041343181C66
:401AC0000EF008FB2EE03B68181CFFF755FD29E0214B1B78DBB21A1C0123134003D03B68181C00F025FB1C4B1B78DBB21A1C0123134004D03B68181C00F0A6FE12E011E066
:401B00003B68181CFFF7ACFD0CE0144B1B7801221343DAB2114B1A7004E0C04602E0C04600E0C0460C4B1B78DBB21A1C112313400FD0094B1B78DBB201229343DAB2064B51
:401B40001A70074B1B68FA1D11783A68081C111C9847BD4608B080BD5B2300203C2300204023002080B500AFBD4680BD80B582B000AF7860024B7A681A60BD4602B080BD4F
:401B80000812002090B587B000AF041C081C111C3B60FB1D221C1A70BB1D021C1A707B1D0A1C1A701623FB1800221A80FB1D1B78002B03D1BB1D1B78082B04D91623FB1893
:401BC00001221A80BBE0BB1D1B78062B65D89A005E4BD3181B689F46FB1D1A781423F9185B48131C9B009B18DB00C3185B880B807DE0FB1D1A781423F9185548131C9B0032
:401C00009B18DB00C3181833DB880B806FE0FB1D1A781423F9184E48131C9B009B18DB00C31820335B880B8061E0FB1D1A781423F9184748131C9B009B18DB00C3182033EF
:401C40009B880B8053E0FB1D1A781423F9184048131C9B009B18DB00C31808339B880B8045E0FB1D1A781423F9183948131C9B009B18DB00C3180E339B880B8037E0FB1D04
:401C80001A781423F9183248131C9B009B18DB00C31814339B880B8029E0BB1D1B78D91FFB1D1A782A48131C9B009B18DB00C3181B79994216DAFB1D1A782549131C9B00AC
:401CC0009B18DB00CB1808331968BB1D1A78131C5B009B185B002A3BCA181423FB1812881A8003E01423FB1800221A80C0461423FB181B88002B04D11623FB1813221A80F9
:401D00001DE00823FB181422BA1812881A817B1D1B789AB20823FB189A800823FB183A681A600823FB18181C0021002200230EF0DDFF031E03D01623FB1801221A8016231A
:401D4000FB181B88181CBD4607B090BDF85E0100D05E010090B587B000AF041C081C111C3B60FB1D221C1A70BB1D021C1A707B1D0A1C1A701623FB1800221A80FB1D1B785A
:401D8000002B03D1BB1D1B78082B04D91623FB1801221A80BAE0BB1D1B78062B65D89A005E4BD3181B689F46FB1D1A781423F9185B48131C9B009B18DB00C3185B880B8061
:401DC0007DE0FB1D1A781423F9185548131C9B009B18DB00C3181833DB880B806FE0FB1D1A781423F9184E48131C9B009B18DB00C31820335B880B8061E0FB1D1A7814239E
:401E0000F9184748131C9B009B18DB00C31820339B880B8053E0FB1D1A781423F9184048131C9B009B18DB00C31808339B880B8045E0FB1D1A781423F9183948131C9B00A3
:401E40009B18DB00C3180E339B880B8037E0FB1D1A781423F9183248131C9B009B18DB00C31814339B880B8029E0BB1D1B78D91FFB1D1A782A48131C9B009B18DB00C318A4
:401E80001B79994216DAFB1D1A782549131C9B009B18DB00CB1808331968BB1D1A78131C5B009B185B002A3BCA181423FB1812881A8003E01423FB1800221A80C0461423C7
:401EC000FB181B88002B04D11623FB1813221A801CE00823FB181422BA1812881A817B1D1B789AB20823FB189A800823FB183A681A600823FB18181C002100220EF0C0FE00
:401F0000031E03D01623FB1801221A801623FB181B88181CBD4607B090BDC046145F0100D05E0100B0B588B000AF051C0C1C101C191CFB1D2A1C1A70BB1D221C1A707B1DBB
:401F4000021C1A703B1D0A1C1A701E23FB1800221A801C23FB1800221A80FB1D1B78002B0FD17B1D1B78022B0BD8BB1D1B78082B07D8BB1D1B78022B03D9BB1D1B78052B16
:401F800004D11E23FB1801221A8063E0BB1D1B78032B16D17B1D1B78022B0DD1FB1D1A781C23F9184548131C9B009B18DB00C31820331B880B804DE01E23FB1801221A80C9
:401FC00048E0BB1D1B78032B19D9BB1D1B78062B15D8FB1D1978BB1D1B78043B1A1C5200D21853001A1C0B1C9B005B18DB00D31808331A1C314BD3180433BB6112E0FB1D27
:402000001A782E49131C9B009B18DB00CB1808331968BB1D1A78131C5B009B185B002A3BCB18BB617B1D1B78002B05D11C23FB18BA6952881A800DE07B1D1B78012B05D10B
:402040001C23FB18BA6992881A8003E01E23FB1801221A801E23FB181B88012B26D01C23FB181B88002B04D11E23FB1813221A801CE00C23FB181C22BA1812881A813B1D37
:402080001B789AB20C23FB189A800C23FB183A6B1A600C23FB18181C002100220EF0F0FD031E03D01E23FB1801221A801E23FB181B88181CBD4608B0B0BDC046D05E010053
:4020C00080B584B000AF021C3960FB1D1A703B685B68181CFFF7ECF9031C1A1C012313409BB2002B03D0C3235B00FB6002E08823FF33FB600B4B1B78DBB201229343DAB232
:40210000084B1A70084B1B78012B06D1074B1B7802221343DAB2054B1A70FB68181CBD4604B080BD5B230020442300203C23002090B589B000AF78601F23FB1800221A70DF
:402140001E23FB1800221A700023BB619C4B1B68002B00D1EBE10C23FB187A6812881A800C23FB1800225A600C23FB181E22BA1812789A707B6899891E23FB181A789148CC
:40218000131C9B009B18DB00C3185B88994229D10C23FB180022DA707B681B89012B00D095E17B685B681B78002B02D0012B0CD017E0C4235B00BB61834B1B78DBB20122E9
:4021C0009343DAB2804B1A700BE08A23FF33BB617D4B1B78DBB201229343DAB27A4B1A70C04674E17B6899891E23FB181A787548131C9B009B18DB00C31820339B889942FF
:4022000029D10C23FB180222DA707B681B89012B00D05CE17B685B681B78002B02D0012B0CD017E0C5235B00BB61674B1B78DBB201229343DAB2644B1A700BE08C23FF3344
:40224000BB61614B1B78DBB201229343DAB25E4B1A70C0463BE17B6899891E23FB181A785848131C9B009B18DB00C31808339B88994214D10C23FB180422DA707B681A1DF4
:402280000C23FB185A60C6235B00BB614E4B1B78DBB201229343DAB24B4B1A7017E17B6899891E23FB181A784648131C9B009B18DB00C3180833DB8899420ED10C23FB1826
:4022C0000422DA701E23FB181A787B68101C191CFFF7F6FE031CBB61F9E07B6899891E23FB181A783748131C9B009B18DB00C3180E339B88994214D10C23FB180522DA70D2
:402300007B681A1D0C23FB185A60C6235B00BB612D4B1B78DBB201229343DAB22A4B1A70D5E07B6899891E23FB181A782548131C9B009B18DB00C31814339B88994214D1A1
:402340000C23FB180622DA707B681A1D0C23FB185A60C6235B00BB611B4B1B78DBB201229343DAB2184B1A70B1E07B6899891E23FB181A781348131C9B009B18DB00C31831
:402380001433DB8899420ED10C23FB180622DA701E23FB181A787B68101C191CFFF790FE031CBB6193E01723FB1800221A701C23FB1807221A701D23FB1800221A7071E05B
:4023C00008120020D05E01005B2300207B6899891E23FB181A785948131C9B009B18DB00C318083318681D23FB181A78131C5B009B185B00C3181B88994219D10C23FB185A
:402400001C22BA181278DA707B681A1D0C23FB185A60C6235B00BB61494B1B78DBB201229343DAB2464B1A701723FB1801221A707B6899891E23FB181A784048131C9B00B7
:402440009B18DB00C318083318681D23FB181A78131C5B009B185B00C3185B88994213D10C23FB181C22BA181278DA701E23FB181A787B68101C191CFFF722FE031CBB619D
:402480001723FB1801221A701C23FB181A781C23FB1801321A701D23FB181A781D23FB1801321A701E23FB181A782449131C9B009B18DB00CB181B791D22BA1812789A42A1
:4024C00005D21723FB181B78002B00D17EE71E23FB181A781E23FB1801321A70184B1B78DBB21A1C012313401BD17B681A1D7B681F217C18101C00211A1C40230EF0F6FB0B
:40250000031C23701F23FB181B78002B08D10D4B1B68B9690C22BA18081C111C984706E005E01E23FB181B78002B00D11CE61F23FB181B78181CBD4609B090BDD05E0100CC
:402540005B2300200812002090B58BB000AF3C1D20800C1C101C191CFB1C221C1A70BB1C021C1A707B1C0A1C1A702623FB1800221A80FB1C1B78002B03D1BB1C1B78082BCF
:4025800004D92623FB1801221A80BAE0BB1C1B78042B0CD1FB1C1A78131C9B009B18DB0008331A1C5A4BD31804333B6243E0BB1C1B78062B0CD1FB1C1A78131C9B009B187E
:4025C000DB0014331A1C524BD31804333B6232E0BB1C1B78062B2AD9BB1C1B78082B26D8BB1C1B78D91FFB1C1A784948131C9B009B18DB00C3181B79994213DAFB1C1A7808
:402600004349131C9B009B18DB00CB1808331968BB1C1A78131C5B009B185B002A3BCB183B6208E02623FB1801221A8003E02623FB1801221A802623FB181B88002B60D1D9
:402640003B6A1B88002B04D12623FB1813221A8057E03B6A5B885A1E2E49131C9B009B189B00CB1808339B685B68181CFEF720FF031C1A1C012313409BB2002B24D0264B4C
:402680001B78022B1AD13B6A1A881423FB181A811423FB18BA6B1A607B1C1B789AB21423FB189A802623FC183B1D1422BA181868111C0DF043FD031C238022E02623FB18B9
:4026C0000422FF321A801CE03B6A1A880823FB181A817B1C1B789AB20823FB189A800823FB18BA6B1A600823FB18181C0021002200230EF0FBFA031E03D02623FB180122E4
:402700001A802623FB181B88181CBD460BB090BDD05E0100DC5A01005223002080B582B000AFBB1D01221A70FB1D00221A70FB1D1A781549131C9B009B18DB00CB185B8841
:40274000002B15D0FB1D1A780F49131C9B009B18DB00CB185B885A1E0C49131C9B009B189B00CB1808339B685B68BA1D12781A70FB1DFA1D127801321A70FB1D1B78002B29
:40278000D5D0BD4602B080BDD05E0100DC5A010080B500AFBD4680BD80B582B000AF7860024B7A681A60BD4602B080BD0C12002090B587B000AF041C081C111C3B60FB1DE2
:4027C000221C1A70BB1D021C1A707B1D0A1C1A701623FB1800221A80FB1D1B78012B03D1BB1D1B78002B04D01623FB1801221A8022E03223002B04D11623FB1813221A80B1
:402800001AE032220823FB181A817B1D1B789AB20823FB189A800823FB183A681A600823FB18181C002100220EF02AFA031E03D01623FB1801221A801623FB181B88181C51
:40284000BD4607B090BDC04690B587B000AF78601723FB1800221A703D4B1B68002B00D16FE07B689B893222934204D07B689B892F22934265D10823FB187A6812881A803E
:402880007B681A1D7B6817217C18101C00211A1C40230EF02BFA031C23701723FB181B78002B46D17B689B89322293422FD10823FB1801229A700823FB1800225A607B68DA
:4028C0005B68181CFEF7F4FD031C1A1C012313409BB2002B03D0F4235B003B6102E0EA23FF333B611A4B1B6839690822BA18081C111C9847174B1B78012B07D1164B1B7876
:4029000002221343DAB2144B1A7012E011E00823FB1800229A707B681A1D0823FB185A600B4B1B68F52251000822BA18081C111C98470A4B1B78DBB201229343DAB2074B90
:402940001A701723FB181B78181CBD4607B090BD0C120020442300203C2300205B23002080B500AFBD4680BD80B582B000AF786000F048F87B68181C00F008F8032000F074
:4029800011F800F035F8BD4602B080BD80B582B000AF7860024B7A681A66BD4602B080BD0000002090B585B000AF021CFB1D1A700623FB600B23FC1800F03FFD031C2370C3
:4029C0000A4B0A4A1268C0218A43111CFA1D1078FA689040021C0A431A600B23FB181B78181C00F02EFDBD4605B090BD08E400E080B500AF024B802252001A60BD4680BD50
:402A000000E100E080B500AF024B802252001A60BD4680BD80E100E080B584B000AF021CFB1D1A700E4B1B68DAB20F23FB1840218A431A70FB1D1B789B01DBB240221340EF
:402A4000D9B20F23FB180F22BA1812780A431A70034B0F22BA1812781A60BD4604B080BD0003044080B584B000AF021CFB1D1A700E4B1B68DAB20F23FB1810218A431A7085
:402A8000FB1D1B781B01DBB210221340D9B20F23FB180F22BA1812780A431A70034B0F22BA1812781A60BD4604B080BD0000044080B584B000AF021CFB1D1A700E4B1B68C8
:402AC000DAB20F23FB1840218A431A70FB1D1B789B01DBB240221340D9B20F23FB180F22BA1812780A431A70034B0F22BA1812781A60BD4604B080BD0002044080B500AF1D
:402B000000F062F8054B181C00F020F8032000F029F800F04FF8BD4680BDC046452B000080B582B000AF786000F04EF87B68181C00F00CF8032000F015F800F03BF8BD4629
:402B400002B080BD80B500AFBD4680BD80B582B000AF7860024B7A689A64BD4602B080BD0000002090B585B000AF021CFB1D1A701623FB600B23FC1800F05FFC031C237059
:402B80000A4B0A4A12680A491140FA1D1078FA689040021C0A431A600B23FB181B78181C00F04FFCBD4605B090BDC04600E400E0FFFF3FFF80B500AF024B04221A60BD4676
:402BC00080BDC04600E100E080B500AF024B04221A60BD4680BDC04680E100E080B500AF024B04221A60BD4680BDC04680E200E090B585B000AF78600F23FC1800F01DFCD0
:402C0000031C2370094B7A6807210A40D104074A1268074802400A431A600F23FB181B78181C00F00EFCBD4605B090BD00010B40FFFFC7FF90B58BB000AF78602723FC18C2
:402C400000F0FBFB031C2370184B1A680C23FB181A60174B1A680C23FB185A607B68033B144AD35C1A1C0C23FB189A60124B1A680C23FB18DA601C23FB18104A1A600C236B
:402C8000FA181C23FB185A600D4B1C22BA181A600C4B0D4A1A600A4B1B682723FB181B78181C00F0CEFBBD460BB090BD08010B4000010B40305F010030001040B6EA0000DC
:402CC00008001040040010401700008080B584B000AF78600023FB60154B154A126801210A431A60134B144A1A60144B134A1268802109020A431A607B68002B12D01023FF
:402D0000FB600CE0012000F059F800F019F8031E02D00023FB6005E07B68013B7B607B68002BEFD1FB68181CBD4604B080BDC04660F02E4078002E400220000010002E40F6
:402D400080B582B000AF054B1B68012213407B607B68181CBD4602B080BDC0460C002E4080B582B000AF021CFB1D1A7001BEBD4602B080BD80B582B000AF786009E00C4BDB
:402D80001B68181C00F050FB7B680A4A944663447B607A6880231B029A42F0D8064B1B687A685343181C00F03FFBBD4602B080BD340E00200080FFFF2C0E002080B582B00B
:402DC00000AF021CBB1D1A80BB1D1B88044A12785343181C00F028FBBD4602B080BDC046300E002080B500AF154B154A1268920092081A60134B134A1268920092081A6070
:402E0000114B114A1268920092081A600F4B0F4A1268920092081A600D4B0D4A1268920092081A600B4B0B4A1268920092081A60094B094A1268920092081A60BD4680BD47
:402E40000800044008010440080204400803044008040440080504400806044090B583B000AFFC1D00F0E9FA031C2370074B074A126804218A431A6030BFFB1D1B78181C0D
:402E800000F0DFFABD4603B090BDC04610ED00E090B583B000AFFC1D00F0CFFA031C2370114B114A1268520052081A600F4B104A128892B21A600F4B0E4A126804210A43B7
:402EC0001A600D4B1B683B600220FFF791FE30BF094B3A681A60FB1D1B78181C00F0B1FABD4603B090BDC04600000B400C000B4052F1FF0F10ED00E000010B4090B583B0C5
:402F000000AFFC1D00F099FA031C2370FFF76AFF114B114A1268802109060A431A600F4B0F4A128892B21A600E4B0E4A126804210A431A600C4B0C4A1268FF218A43F12145
:402F40000A431A6030BFFB1D1B78181C00F079FABD4603B090BDC04600000B400C000B4050F1FF0F10ED00E02C000B4080B500AF0E4B0E4A126801218A431A600B4B0B4AE8
:402F8000126802218A431A60094B094A126830218A4310210A431A60054B054A126807218A4301210A431A60BD4680BD00F02E4000FF2E4080B500AF0E4B0E4A12680221C2
:402FC0008A431A600C4B0C4A126807218A4302210A431A60084B084A126830218A4320210A431A60034B034A126801210A431A60BD4680BD00F02E4000FF2E4080B500AF52
:40300000FFF7B4FF044B044A1268802109060A431A60BD4680BDC04600F02E4080B584B000AF78600C4B1B6801221340FB607B68002B02D0012B03D005E0FFF797FF06E0E4
:40304000FFF7B8FF03E00020FFF78AFEC046FB68181CBD4604B080BD00F02E4090B583B000AFFC1D00F0E9F9031C2370074B074A1268C02109020A431A60FB1D1B78181CC0
:4030800000F0DFF9BD4603B090BDC04600010B4080B500AF054B1A68C0231B02134001D0012300E00023181CBD4680BD00010B4090B583B000AFFC1D00F0BFF9031C237098
:4030C0000C4B0C4A12680C490A408021C9010A431A60084B074A126807490A40802109020A431A60FB1D1B78181C00F0AAF9BD4603B090BD00010B40FF3FFFFF80B582B049
:4031000000AF78607B68022B02D90020FFF728FE054B1B687A68D2000132D34001221340181CBD4602B080BD10020B4080B584B000AF786039607B68022B02D90020FFF791
:403140000FFE7B68181CFFF7D9FF031E15D10C4B1B687A68D200111C03228A40D2431340FB603B68032213407A68D2009340FA681343FB60024BFA681A60BD4604B080BD17
:403180000C020B4080B584B000AF786039607B68002B02D07B68012B01D1012300E00023002B02D10020FFF7DBFD7B68181CFFF7A5FF031E16D10D4B1B687A68D2000232DD
:4031C000111C01228A40D2431340FB607B68DB0002331A1C3B689340FA681343FB60034BFA681A60BD4604B080BDC0460C020B4080B582B000AF7860144B144A11687A68BD
:403200000A431A607B680122134005D0C0460020FFF774FF031EFAD07A6880235B00134005D0C0460120FFF769FF031EFAD07A6880235B02134005D0C0460220FFF75EFF22
:40324000031EFAD0BD4602B080BDC04610020B4080B584B000AF786039607B68002B02D07B68012B01D1012300E00023002B02D10020FFF775FD174B1B689B0F9B0701D114
:40328000C92300E05D23181CFFF798FD124B1B68FB607B681B011A1C104B9340DA43FB681340FB600C4B7A681201111C3A688A40111CFA680A431A60064B1B689B0F9B07DC
:4032C00001D1432300E01F23181CFFF777FDBD4604B080BD0C020B4008020B40FFFF000080B500AF034B1B68034A1340181CBD4680BDC04610020B400404040090B585B084
:4033000000AF78600B23FC1800F097F8031C2370FFF7BEFE031E04D00123FB60FFF7C8FE01E00023FB607B680D4A13407B600D4B0C4A12680C4911407A680A431A60094B1F
:403340001B68FB68012B01D1FFF788FE0B23FB181B78181C00F075F8BD4605B090BDC0460404040010020B40FBFBFBFF80B582B000AF7860084B084A11687A6807480240A5
:403380000A431A60C046044B1B68044A1340FAD1BD4602B080BDC04610020B400808080080B582B000AF094B1B68DAB2FB1D04210A401A70054BFA1D12781A60FB1D1B78F5
:4033C0009B08DBB2181CBD4602B080BD1002044080B500AF044B1B6880221340DB09DBB2181CBD4680BDC0460403044080B500AF044B1B68202213405B09DBB2181CBD46CD
:4034000080BDC0460403044080B500AF044B1B68022213405B08DBB2181CBD4680BDC04604000440000000000230800803D00138FDD1C046C046C0467047EFF3108072B628
:40344000704780F31088704780B5ACB000AFF860B960BB1D1A800023A422BA1813600023A022BA181360BB689422BA181360BB1D1A889423FB181B68D318594A934200D937
:4034800094E09423FB181B68DB09AC22BA181360AC23FB181B68DB019C22BA18136077E000239822BA1813600023A822BA18136050E09C23FB181A689423FB181B689A42B8
:4034C0002DD3BB1D1A88A423FB181B689A4226D9FA68A423FB181B68D31819781423FA18A823FB181B68D3180A1C1A709C23FB181B681B78DAB2F968A423FB181B68CB1885
:403500001B789A4203D001239822BA181360A423FB181B680133A422BA1813600CE09C23FB181B681B78D9B21423FA18A823FB181B68D3180A1C1A709C23FB181B6801335D
:403540009C22BA181360A823FB181B680133A822BA181360A823FB181B687F2BA9D99823FB181B68002B0CD0AC23FB181A681423FB18101C191C00F02BFA031CA022BA18E8
:403580001360AC23FB181B680133AC22BA181360BB1D1A88A423FB181B689A420AD9A023FB181B68002B00D17AE703E00123A022BA181360A023FB181B68002B09D0A02372
:4035C000FB181B68012B04D001235B42A022BA181360A023FB181B68181CBD462CB080BDFFFF010080B582B000AF78600A1CBB1C1A80BB1C1A887B681A60BD4602B080BD78
:4036000080B582B000AF78600A1CBB1C1A80BB1C1A887B681A60BD4602B080BD80B584B000AF494B1B78DBB21B02484A1278D2B21343FB60464B1B78DBB21B02454A12781C
:40364000D2B21343BB60BB68434A934207D1FB68072B04D1414BBB600423FB6009E0BA68D4231B019A4204D1FB68042B01D13B4BBB603B4BBA681A603A4BFA681A603A4B89
:403680001B78DBB21B02394A1278D2B21343FB60FA6880239B019A4202D0FB68002B01D1334BFB60334BFA681A60334B1B78DBB21B02324A1278D2B21343FB60FB68304AD6
:4036C000934206D0FB682F4A934202D0FB68052B01D12D4BFB602D4BFA681A602C4B1B681B097B602B4B1B68AA2B29D17B68012B26D9214B1B78DBB20E2B21D1264B1B7886
:40370000DBB29BB21B0299B2244B1B78DBB29AB2BB1C0A431A80224BBA1C12881A60214B1B78DBB29BB21B0299B21F4B1B78DBB29AB23B1C0A431A801C4B3A1C12881A6031
:40374000BD4604B080BDC046D9F0FF0FD8F0FF0FDFF0FF0FDEF0FF0F580B0000580D00006C002E4074002E40DBF0FF0FDAF0FF0F0220000078002E40DDF0FF0FDCF0FF0FF7
:403780000F0F000005050000050F000080002E40EC0F00F0E00F00F06DF2FF0F6CF2FF0F84002E406FF2FF0F6EF2FF0F94002E4080B582B000AF021CBB1D1A80BB1D1B884A
:4037C000181CFFF7FBFABD4602B080BD80B582B000AF78607B68181CFFF7CCFABD4602B080BDC04680B500AF00F0DEF8BD4680BD80B500AF00F0E2F8BD4680BD80B500AF43
:4038000000F0DCF8044B181C00F09CF8032000F0A5F8BD4680BDC046D13C000080B500AF024B181C00F07CF8BD4680BDD13C000080B500AF0223FF33181CBD4680BDC046EF
:4038400080B582B000AF78602B23181CBD4602B080BDC04680B582B000AF78602B23181CBD4602B080BDC04680B582B000AF78602B23181CBD4602B080BDC04680B582B0A9
:4038800000AF78602B23181CBD4602B080BDC04680B582B000AF78602B23181CBD4602B080BDC04680B582B000AF78602B23181CBD4602B080BDC04680B582B000AF786049
:4038C0002B23181CBD4602B080BDC04680B582B000AF78602B23181CBD4602B080BDC04680B500AF2B23181CBD4680BD80B582B000AF021CFB1D1A702B23181CBD4602B033
:4039000080BDC04680B582B000AF786039602B23181CBD4602B080BD80B500AFBD4680BD80B582B000AF786000F048F87B68181C00F008F8032000F011F800F035F8BD46C4
:4039400002B080BD80B582B000AF7860024B7A681A67BD4602B080BD0000002090B585B000AF021CFB1D1A700623FB600B23FC18FFF763FD031C23700A4B0A4A1268C021ED
:403980008A43111CFA1D1078FA689040021C0A431A600B23FB181B78181CFFF752FDBD4605B090BD0CE400E080B500AF024B802252011A60BD4680BD00E100E080B500AFB0
:4039C000024B802252011A60BD4680BD80E100E090B5A9B000AF7860396000239822BA18136000239422BA1813607B68594A934200D9A4E03B68002B00D1A0E00C23FB1873
:403A000008331A1C3B68101C191C802200F023FB7B68514A934201D9504A00E0504A0C23FB181A600C23FB187F225A604D4B0C22BA181A604C4B4D4A1A60C046494B1B68F0
:403A40001B0F1A07F0231B069A4204D1454B1B68FF2213400BE0434B1B681B0F1A07A0231B069A4202D03F4B1B6800E000239822BA1813609823FB181B68002B5ED19F233A
:403A8000FC18FFF7DAFC031C237000F075F8031C9422BA1813609423FB181B68002B05D100F0A6F8031C9822BA1813609823FB181B68002B30D10C23FB182D4A1A600C2324
:403AC000FB181A687B681B041A430C23FB181A60244B0C22BA181A60234B264A1A60C046204B1B681B0F1A07F0231B069A4204D11C4B1B68FF2213400BE01A4B1B681B0F56
:403B00001A07A0231B069A4202D0164B1B6800E000239822BA1813609423FB181B68002B05D100F099F8031C9422BA1813609F23FB181B78181CFFF784FC04E003E0042303
:403B40009822BA1813609823FB181B68181CBD4629B090BDFF030000FF010000B6D70001B6D70000080010400400104004000080B6D800000500008080B584B000AF0023FD
:403B8000FB603B1D154A1A60154A3B1D5A60154B3A1D1A60144B154A1A60C046114B1B681B0F1A07F0231B069A4204D10D4B1B68FF2213400BE00B4B1B681B0F1A07A02369
:403BC0001B069A4202D0074B1B6800E00023FB60FB68181CBD4604B080BDC046B6E900002823002008001040040010401600008080B582B000AF00237B60134B134A1A609D
:403C0000134B144A1A60C0460F4B1B681B0F1A07F0231B069A4204D10B4B1B68FF2213400BE0094B1B681B0F1A07A0231B069A4202D0054B1B6800E000237B607B68181C87
:403C4000BD4602B080BDC04608001040B6E80000040010401500008080B584B000AF0023FB603B1D154A1A60154A3B1D5A60154B3A1D1A60144B154A1A60C046114B1B68E7
:403C80001B0F1A07F0231B069A4204D10D4B1B68FF2213400BE00B4B1B681B0F1A07A0231B069A4202D0074B1B6800E00023FB60FB68181CBD4604B080BDC046B6EA000080
:403CC0002823002008001040040010401700008080B500AF11F0A4FEBD4680BD002243088B4274D303098B425FD3030A8B4244D3030B8B4228D3030C8B420DD3FF22090214
:403D000012BA030C8B4202D31212090265D0030B8B4219D300E0090AC30B8B4201D3CB03C01A5241830B8B4201D38B03C01A5241430B8B4201D34B03C01A5241030B8B428F
:403D400001D30B03C01A5241C30A8B4201D3CB02C01A5241830A8B4201D38B02C01A5241430A8B4201D34B02C01A5241030A8B4201D30B02C01A5241CDD2C3098B4201D348
:403D8000CB01C01A524183098B4201D38B01C01A524143098B4201D34B01C01A524103098B4201D30B01C01A5241C3088B4201D3CB00C01A524183088B4201D38B00C01AA3
:403DC000524143088B4201D34B00C01A5241411A00D20146524110467047FFE701B5002000F0FCF802BDC0460029F7D003B5FFF775FF0EBC4243891A1847C04603460B4313
:403E00007FD4002243088B4274D303098B425FD3030A8B4244D3030B8B4228D3030C8B420DD3FF22090212BA030C8B4202D31212090265D0030B8B4219D300E0090AC30B8B
:403E40008B4201D3CB03C01A5241830B8B4201D38B03C01A5241430B8B4201D34B03C01A5241030B8B4201D30B03C01A5241C30A8B4201D3CB02C01A5241830A8B4201D392
:403E80008B02C01A5241430A8B4201D34B02C01A5241030A8B4201D30B02C01A5241CDD2C3098B4201D3CB01C01A524183098B4201D38B01C01A524143098B4201D34B0194
:403EC000C01A524103098B4201D30B01C01A5241C3088B4201D3CB00C01A524183088B4201D38B00C01A524143088B4201D34B00C01A5241411A00D20146524110467047AF
:403F00005DE0CA0F00D04942031000D34042534000229C4603098B422DD3030A8B4212D3FC22890112BA030A8B420CD3890192118B4208D3890192118B4204D389013AD012
:403F4000921100E08909C3098B4201D3CB01C01A524183098B4201D38B01C01A524143098B4201D34B01C01A524103098B4201D30B01C01A5241C3088B4201D3CB00C01A83
:403F8000524183088B4201D38B00C01A5241D9D243088B4201D34B00C01A5241411A00D20146634652415B10104601D34042002B00D54942704763465B1000D3404201B5D3
:403FC000002000F00BF802BD0029F8D003B5FFF715FF0EBC4243891A1847C0467047C046014B18687047C046B41100200E4B70B500251E1C0D4CE41AA410A54204D0AB006C
:40400000F35898470135F8E711F0ACFF084B00251E1C084CE41AA410A54204D0AB00F35898470135F8E770BD705F0100705F0100705F0100785F010030B50024944208D00C
:40404000035D651C0C5DA34201D0181B02E02C1CF4E7002030BD002310B5934203D0CC5CC4540133F9E710BD031C8218934202D019700133FAE77047134A1088810703D045
:404080008107890F401A001D11791030484381B25088820703D08207920F801A001D800040180A494030098980B2CA0701D0503080B2890706D504495422091F09785143AE
:4040C000081880B270470000420E00201C12002010B501F05BFF10BD10B501F06DFF10BD10B501F071FF10BD10B500F055FA10BD10B50749044609780220002907D1204600
:4041000001F0B2FF002802D120460AF049FE10BDD40F002070B504460120002C12D02368002B0FD0616800290CD0074D06222889208118462968FFF78EFF69686068097810
:404140000170002070BD00001C120020FFB585B0002768460E9D07734F481C460078002802D0082009B0F0BD10990F9801900095029105A807C800F001F90028F2D169464E
:40418000264603AB84460873002C19D0002115E08A00B75A082F09D990198078002805D0083FB7521878401C187005E0002914D00027B75290198770491CC9B2A942E7D318
:4041C00060460028CED10F98002809D0109901F08DFA002804D00120C4E701208446EFE701F0EAFE2D480021416081600599016021888180022D07D3A1798171A17AC17104
:40420000A1890181218A418100211EE0481C19E082008B00A75AE65ABE46BE4211D26F463E80B4461E190296B678BE7001967646E6521719029EBB78B3706646A652019E28
:40424000BE70401CA842E3D3491CA942DED3134822460C3000906846037B0799069800F015F90028B8D168460B4C007B60700B480C3001F0D1FE0028AED1084907480C3148
:4042800007F08AFC0028A7D107F0A4FC0028A3D10121217066E700003C0E002010120020F8B5054633480E460078002802D002242046F8BD002E5BD000242F49002D16D080
:4042C0002A89D0070DD02868002808D003881B3BE12B04D24088FB2801D81B2801D2012409E0900707D56868002804D1F7E70020088108604860002CDAD11F482F890781C7
:404300001C481B21801D018041800421017119490020891C0870F80705D016480622801D2968FFF798FE1449B80703D56A681148127882700F480D46801D0860001F4860A3
:4043400001F0B8FE0B48801D01F0A6FE28890DF07DFD28890DF0E4FE03461033FFF78CFE1F21C018890140180249308088809FE701249DE73C0E00201C120020FFB58446EB
:40438000384F1C460020BB883F78054602460646002F11D100290ED0029999420BD36146002908D0002C06D00A99002906D02E4B0B99994202D2012004B0F0BD002144E0D0
:4043C000AB001F19BF78002F3BD0E35A002B38D07B43591889B22B0000F04AF8050410161C253100A7782388BC46FF27233BEB37BB4222D26346032B1FD322E0A388002B0D
:404400001FD0302B19D31CE02389002B19D0282B13D316E0A289002A13D01346134F233BBB420AD20DE0268A002A0AD033460F4F233BBB4201D2964203D901200EE00020A8
:4044400001E000280AD16D1CEDB2099B9D42B7D31C2463435B1802998B42ACD89642AAD8AAE700003C0E002079020000BAFF000030B47446641E2578641CAB4200D21D46F6
:40448000635D5B00E31830BC18470000FFB583B0002469460C801F4606468C80002806D00598002803D004983043800701D0012466E0002FFBD03449049809888842F6D3F9
:4044C000FFF7ACF9FFF794F900F00EFC002855D100F076FD002851D12C49084601F03AF905042D0C4AD12A480499066081800021C18007810C98007AC00704D0684601F0AD
:4045000074FD040007D10C98007A800703D501A801F074FD0446BF1DFEB2002C20D13146059800F05DF804001AD10DF007FE040016D16A461088928808368518144AF1B240
:404540009088D288AEB29319984207D3401B801A80B201F0EFFB050007D000E0FF25012400F05AFA002D04D008E0F8B200F01CF9F6E700F07DFA07490120087000F0C6FB48
:40458000204607B0F0BD0000400E0020CD46000028120020480E002010B503480078012801D101F069FA10BD480E002070B5084B0446DA889E8800205518B54206D81D6895
:4045C000AA182260DA885118D98070BD032070BD28120020014800897047000028120020F0B587B007460D4600208900009006916846FFF7DBFF844600285DD1304800999E
:404600000160002117E02E4B88001A680629115406D22C4C0419667882185670628805E0C419203CA67A8218567022891B68C018491C4280C9B2A942E5D300242DE0601CBF
:40464000C2B2059025E01E4FA30039689600581840887118039604904E88B04217D938466F46FE80B6464F786E4677710297049F4F800168039F5E18767879184E700168FD
:40468000764659184E800068029F18184770521CD2B2AA42D7D30598C4B2AC42CFD36046002809D168460699FFF780FF8446002802D1054900980860604607B0F0BD00005D
:4046C0004C0E0020985F0100500E00207047000010B5002809D005494A68002A05D0011F08788000105801F0D3FA10BD4C0E002010B50446FFF76EFFC0B2801DA0420CD37F
:4047000007484068002808D0A100405801F032FA002801D00470001D10BD002010BD00004C0E0020F8B516460D460446FFF752FFC0B2801DA04203D20020C0430090F8BD53
:40474000B2B2E9B2684601F03BFA0099481C03D0024AA000526811500098F8BD4C0E0020F8B50746FFF736FF801DC6B20A49002005460C680DE06178002907D06188B942B2
:4047800002D32078FFF7B4FF002804D1241D6D1CEDB2B542EFD3F8BD4C0E002010B5002801D0FFF795FF10BD70B506460948002504680BE06178002905D062882078121DBA
:4047C0000023FFF7AFFF241D6D1CEDB2B542F1D370BD00004C0E0020FFB581B00A9C16002BD000F0EFF80546042826D0214F002C0BD02046FFF7B4FF2901C91948600028E5
:404800001BD022460499FFF726FC1A4928010E5046187481019805707D20029CC000444300F0BEF8074604280AD000F053FAA0420ED800F04FFA201A06E0FF2005B0F0BDCB
:40484000204600F0ABFA0020F06035720020F5E700F040FA009000F0B7FA00980121001B009000F0EDF803493A0151180098C860E6E7000034120020F8B506011648341854
:40488000217A042903D0E068002802D017E00020F8BD00F01FFA054600F096FA00F0A0F804280CD001010C480F18F8680021451900F0C6F80020F860284600F06FFA6068DA
:4048C000054D002801D0FFF769FF042020720020A8516081E060DAE734120020FEB500266A46304601232549050169180D7A042D02D0C96800291BD000211154401CC0B2BD
:404900000428F0D300246846005D002830D01B48210108184189476805680291002101604160042241810272C160002E02D015E01354E3E700F054F804280ED001010F48AE
:4049400008180190C6680021304600F079F801980021C160304600F021FA0126002D07D038460299A847002F02D03846FFF716FF641CE4B2042CC6D3FEBD00003412002047
:404980000EB5002005216A460090118150810348694600680EF047FA0EBD0000540E0020074A0020010189180B7A042B02D0C968002903D0401CC0B20428F3D3704700001F
:4049C000341200200549002002015218127A042A03D0401CC0B20428F6D370473412002030B50A4B04200A4C00210A011219157A042D06D0D268002A03D09A4201D808462E
:404A00001346491CC9B20429EFD330BDFFFF0000341200207047000030B50020074C05460423020111190B72A5504D60401C4D81C0B2CD600428F4D330BD00003412002021
:404A400030B5094C00231A011219157A042D04D0D568002906D02D18D5605B1CDBB2042BF1D330BD2D1AF7E734120020002070471CB5002469460C70142001902346054A66
:404A800005480EF0D5F904480068401C00D1FF2420461CBDED4A0000540E00203EB5124A0146FF2000230124126800290DD0012914D0042908D104206946009308814B8195
:404AC00010460EF0B0F980B23EBD6846009304814381694610460EF0A1F9F4E768460093048143816946EBE7540E002070B545890468416800890300FFF7BAFC082805097F
:404B0000091E22282628002005F018FF1EE0022908D0C8B22A4621460CF048FB2046FFF73DFE13E002202A4621460CF03FFB2946204600F00DF809E000200DF063FE05E02A
:404B40002046FFF7CBFE01E0FEF7E6FE002070BD014B0022DB681847580E002070B5448905680089022803D0032809D0FF2070BD2246094C0023A46829460120A04708E0F3
:404B8000FFF7AAFA241DA2B200232946022006F0CCFE002070BD0000580E002070470000024800214160018041807047580E002070B50C46002186B016460391012802D084
:404BC000022859D116E003A9012006F0F6FE01281BD1039D324621462846FFF73CFA0095287801900220694608814E816846FFF7B5FF41E0214D002B686809D0049004A99B
:404C0000022006F0DAFE01281DD0022006B070BD002812D0298840182146FFF71CFA28880024801980B228806988091D884206D12C801348FFF792FF03E00320E6E78842B9
:404C40001AD96C6018E004986860E278A378110219430B4A698000231060E3565360032313815181A1788170E178C1706178417021780170042028800020C7E7580E0020A4
:404C8000741200203EB515460C46022803D004280CD000203EBD0091019002206946088107484A8100680EF0BEF807E00CF07EFA044B0022DB6829462046984701203EBDFD
:404CC000540E0020580E0020014AD16090607047580E0020034801688068081A0A214843000970478012002010B5FEF787FD482204490548FFF7AFF903490120C870002078
:404D000010BD0000B45F01008416002010B5FEF769FD10BD70B5134C2368002B08D0207B1149C20705D04008400020738868A08070BD88680B4AA18880B29268814203D9B5
:404D40000A4D691A091802E0814202D2411A5118A160A080A0689842EAD30EF081F800F013F870BD80120020C0102E40FFFF000010B508461946FFF7A7FF10BD704710B557
:404D8000FFF780FF10BD000003480021016041608160C1607047000080120020024610B5FF20002A0CD0FFF7EFFF064C0321207B0843207310010A21FFF716F820600020F3
:404DC00010BD00008012002000B504480A21806848430209FFF7D8FF104600BD801200200248007B8007C00F704700008012002010B54B490868002802DA4A4B01221A7065
:404E0000022290430860484800694549C00B4031096A0246C907C90F0A4259D0012000F0EDFA3F480E216C30FEF7EAFB3E4820218430FEF7E5FB3C4814219C30FEF7E0FBAF
:404E40003948FF21C131A430FEF7DAFB3648FF212F31B030FEF7D4FB33483449BC30FEF7CFFB31483249AC30FEF7CAFB30492E48491CB430FEF7C4FB2B482E49B830FEF77F
:404E8000BFFB29482C49CC30FEF7BAFB26482B490830FEF7B5FB24482949A830FEF7B0FB214828498830FEF7ABFB1F4826498C30FEF7A6FB1C481921C9029030FEF7A0FB89
:404EC000FEF7ACFBFEF7B4FCC0B2022812D01FE000290BD0002101420AD0114801216030FEF78EFB0120FEF771FC97E70121F2E7FF2010BD15491648FEF782FB1448154959
:404F0000001DFEF77DFB124800210830FEF778FB54200449C043891C0870002010BD000000F02E40680E002000002E40320300002F3F00003102000010520000EC16000062
:404F4000FA12000031D000003AE300009956000080012E40F80F000070B50646581C80B245086D00002408E0304600F0C1F81055000A1119A41C4870A4B2AC42F4D3D8072B
:404F800005D0D0182038D15CC47FD454C17770BD30B50A4C002100195B1E07E0541864782502545C2C430480891C89B29942F5DB994201D1515C018030BD000000102E4027
:404FC00010B5FF2000F01AFA0F49FF2048700E481021801D41800121417001700A490020C91C4870FFF704FF04000AD100F02EF907210648FEF7F6FA044807211830FEF766
:40500000F1FA204610BD0000680E0020CC112E4070B5002405465B1E0AE0284600F068F8010A161971702D1D1055A41CADB2A4B29C42F2DB9C4203D1284600F059F810550C
:4050400070BD000070B500210A4D5B1E0AE0541864782602545C344346193480001D891C80B289B29942F2DB994202D1515C4019018070BD00102E40F0B50599091FCFB2B6
:4050800000217E1E0BE0541864782502545C2C43164D45192C80001D891C80B289B2B142F1DBFC0712D01C78515C24020F4A0C4381180C809C785D78001D210280B229437F
:4050C00084182180001D80B2D9780CE059781A7809021143054A84182180001DD9789B78090280B2194380180180F0BD00102E40014940180088704700102E4010B50B49C3
:405100000020487000F0A2F8002000F09DF9002000F08AF907210648FEF764FA044807211830FEF75FFA002010BD00006B0E0020CC112E4010B50C48007801280FD100F0A6
:405140008BFF00F0DDF8002804D10848016A490849000162054802213030FEF751FA02490020C91E087010BD6B0E002040F02E4010B50B46062812D006DC01280CD0032815
:4051800001D1FFF7BBFF10BD0A28FCD00B28FAD105480078107010BDFFF712FF10BD1146184600F06DF910BD6E0E0020F8B5244DAC6A0127A007234E002816DA30780628E8
:4051C0000ED1286A384328621F480069F903084381B21D481030FEF713FA042000F00EF9174802212830FEF7FDF9E00718D000F075FF01280FD1002000F0D4FF062000F033
:40520000FDF81049FF20C91E48707078002802D1686B384368630A4801212830FEF7E2F9E0050BD53078042802D1052000F0E6F80348FF2101312830FEF7D4F9F8BD0000FF
:4052400040F02E406B0E002000002E4010B503212348FEF7D5F90120FEF7AAFA20483038406A204C80076178800F890001431C480C38FEF7C5F96078002808D0401E022162
:4052800081401820FEF7A0FEC000083800E0B82081B21548FEF7B4F91348032109021438FEF7AEF910481149B830FEF7A9F9612189010F48FEF7A4F90D480321001FFEF753
:4052C0009FF90C490C48FEF79BF90B480B496038FEF796F9084801218838FEF791F910BD70F02E406E0E0020D8102E4090890000041E2E40FF0F000058122E4020900000A4
:40530000044800684007400F022801D0002070470120704700010B4000B5FFF7F1FF002805D009480168C908C900016000BD0748016A490849000162054801690122D203BD
:405340009143016100BD000000010B4040F02E4000002E400849087806280BD148780749002803D1486B400840004863C86A01221043C862704700006B0E002040F02E4055
:4053800001480078704700006B0E002002484078022800D001207047680E002000B50300FFF766F8080D050D0B070507090D012000BD032000BD042000BD022000BDFF206E
:4053C00000BD0000074A9168D26889B2064B92B2994204D105498A4201D1012100E000210170704780002E4033D000003FE3000001494870704700006B0E002010B5044641
:40540000FEF7F6F9072C01D9FF2C01D102480470FEF7E8F910BD00006B0E00200149487070470000680E002010B5064A012805D01921C9021046FEF7E3F810BD1D21C90221
:40544000F8E7000090002E4010B50A4A141D012808D009491046FEF7D3F808492046FEF7CFF810BD04491046891CFEF7C9F80349491DF3E788002E4031D000003AE30000BE
:4054800070B50C460546FEF7D3F9C0B202280E49287804D0FF2810D04C280CD810E0FF2809D10A4AD0680004800F032801D0087807E09069000A553803E00878207070BD80
:4054C0004F382070087070BD6A0E002000002E40F0B50122002830D000292ED00424420600D00524792342065B06D21800D0641C034600221EE00C2516466E43104D0027C0
:405500007519AF720E4F002ABB51696007D0661EB24209D10B4E86197606760E05E05E06760E8027BE1B00E080269B198919521C2E81D2B2A242DED300221046F0BD0000BB
:405540000C15002079020000F8B507460020002F03D100F071FE002827D1154E002421460C2251438D19AA7A012A0DD12A8971586868FDF769FF002800D028200021A9722C
:40558000002F05D0282803D0641CE4B2062CE6D3641CE1B207E00C224A439219927A012A04D0491CC9B20629F5D3F8BD2820F8BD0C150020074900200C2242435218927AF5
:4055C000012A05D0401CC0B20628F5D300207047012070470C150020F8B50F000446164609D0184D18496868A04202D94018A04201D38E4201D90120F8BD39462046FEF701
:405600001BFD00281BD0324639462046FEF723FDF0B200210C224A43521913895668F718A74208D90127A41B1B1B9772834206DAC01A1469C0B2491CC9B20629EAD3002031
:40564000F8BD00000C1500207902000010B500F05DF80748054AC16806480C46FEF7FBFC04492046FFF734FF10BD000079020000740E002090120020002070470020054A8E
:40568000002902D0012902D002E0506000E0906000207047740E002070B5084C154608460549A26889182A46FEF7D5FCA0684019A06028B270BD000090120020740E0020FB
:4056C0003EB50A226946FFF7E7FF044606480A2200686946FEF7B0FC002802D00020C0433EBD20463EBD0000740E0020002802D0044A914201D2FF20704703490A61C860C6
:405700000020704779020000740E0020024800214160816070470000740E002070B5074C15460548626880182A46FFF755FF60684019606028B270BD90120020740E0020A7
:4057400010B503490A220968FFF7E8FF10BD0000740E002010B50F4A002313600E4A13600E4B18600E4801600E49012008600E490860000290600E490C4808600D491430EA
:405780000860FF381538506000F0BCF800F0CAF9002010BDA00E0020880E0020B40E0020B80E0020A40E0020940E002054160020980E0020AC0E0020014610B500200029AA
:4057C00010D0094B1A689C685118A14209D25868196080188A0704D08A07920F891A091D196010BD002010BD880E0020F8B50024164E671E321F3D463168136806E01422F0
:40580000624310328A58521C1BD0641C9C42F6D36A1C14D02C461422544322460C3288500C214843FFF7C8FF3168002808510AD031680020103408517068401C70602846C7
:40584000F8BD2546E4E73846F8BD0000980E0020F3B50026F64381B000281BDB1E490968884217D80299002914D01B4F142204463F1D54432546396810354859401C09D0B1
:40588000FDF7B6FF38682F1F4159C359994203DBFDF7A8FF3046FEBD214608310091465801590C20704308180C220299FEF7D3FB0948761C001D0068C159B14200D10026F6
:4058C0000549009A091D865008684159491C4151FDF788FF0020FEBD940E0020002803DB07490968884202D90020C043704704491422091D09685043103008587047000061
:40590000940E0020F0B500200D4A451E0346171F50600FE014260146714314680E1DA3510C461668083433511668083435511468401C635039688842ECD30020F0BD0000E6
:40594000980E0020F3B50026F64381B0002841DB2349096888423DD8029900293AD0204F142204463F1D54432546396810354859401C2FD0FDF73CFF3868415900292BD09F
:40598000211D009146580C21005971430F46C1190C220298FEF75FFB11480021001D0068761C00590C34C0190160416081600C48001D00680159B14200D100260849009A0C
:4059C000091D865008684159491E4151FDF70AFF0020FEBD3046FEBDFDF704FFFAE70000940E0020FEB504460D4600201E49089E0860471E009001900290002C11D048684B
:405A000085420ED2002A0CD0002E0AD0642E08D808460C3001681C2068430C18207A002801D03846FEBD0120226020721846FFF7DDFE6060401C13D06681A6810A4827612A
:405A40000C3067610179A94200D205710021684601810A462846029B00F040F82846FEBD00202072DDE70000A00E002038B50124009400F039F838BDFEB50027164EFF43F8
:405A80003D4600240EE01C20316860430818017A002906D04068FFF721FF002801D0254603E0641C3079A042EDDA681C12D01C2130684D434419FDF79BFE69466068FFF746
:405AC00041FF0546FDF78EFE002DD9D1216868468847D5E7FEBD0000AC0E002038B50024009400F001F838BD1FB500220C49541E0A60002811DB496888420ED808491C22BF
:405B00000C31096850430818406801A9FFF7A0FE401C02D0002004B010BD2046FBE70000A00E0020F0B50021114A4D1E174611710C3F0B46BD6016E008461C246043166870
:405B4000041D355114680646235014680836A3551468361DA353044616680A34335318301468491C255078688142E5D30020F0BDAC0E002038B500210091002811DB0F4995
:405B8000097888420DDA0D4D04010C3529680859002807D0201D0818694600F06FF9002801D0002038BDFDF723FE28680F34015D491E0155FDF716FE009838BDBC0E00202E
:405BC000F7B582B0002502986E1E06602E48D21C024017462D4A2C4610460C380178106805E02301C358002B0FD0641CE4B28C42F7D3711C28D03401211D40180191039945
:405C000000F02AF900281FD101E02646F1E71F48016820460C300F521C480399026820460E30115419480399026820460F3011540398784300F0A0F8144900280968085130
:405C400002D00024009011E001251AE00F48016801980818009900F02CF9002801D0012502E00098C0190090641CE4B203988442ECD3002D05D10298066004480179491C00
:405C80000171284605B0F0BDFCFF0000C80E0020F8B50D4600216A468C461180002839DB23490978884235DA214B04010C3319680A59002A2ED020460C300B5A801C0E5CB2
:405CC000184670438018954224D3854222D2002006E007465F43BF18AF4206D0401CC0B2B042F6D36046002814D0114E271DC8190C366A46294600F006F900280AD168461F
:405D00000088012808D030682946C01900F0D1F8002803D00120F8BD0020F8BDFDF768FD30680F34015D491C0155FDF75BFDF3E7BC0E0020F8B50F46002400F031F80028D7
:405D400017D10C4900220B460C334A600EE021011D680E466A501D680C36AA53B61C1D680F31AA551D68641C6A54E4B2BC42EED31A71F8BDBC0E002000280BD0C01C074A1B
:405D800081085068890053884118994203D89368516018187047002070470000BC0E0020F8B5064600200F4D009029700C0121466846FEF7FBFB00280CD129460C310098E7
:405DC0000860301B001F84B221466846FEF7EEFB002801D0FF20F8BD6C800098A8600020F8BD0000BC0E0020F8B5002827DB19490978884223DA174C05010C34216848593C
:405E000000281CD028460C30085A009028460E300E5C401C0E5420682F1DC01900F064F800280CD12068002445590EE0094829460C300068C01900F03CF8002801D001202D
:405E4000F8BD00982D18641CE4B2B442EED30020F8BD0000BC0E002030B50D4604000BD0A800FFF789FF6060002805D000202570C0436080002030BD012030BD70B50D46DF
:405E8000040005D0002D03D00220205E002801DA012070BDFDF7ACFC0221615E60688900405828606088401E6080FDF79BFC002070BD70B50D46040007D0002D05D00221B3
:405EC0002078615E401E814201DB012070BDFDF78FFC6088401C00B26080616880000D50FDF780FC002070BD10B5040009D0227800216068FEF7B8F80020C043608000205B
:405F000010BD012010BDF0B500231D46002802D00224045F0AE00120F0BD46689F00F6598E4201D1012503E05B1CDBB29C42F4DA15700020F0BD000001480078704700007F
:405F4000D00E00207CB505460024FEF7C5F8A8796946087000A8062229460130FEF77BF80021684604F0B0FF0C2806D0072806D01F2806D0122806D006E0022404E00424EB
:405F800002E0272400E0012420467CBD10B502280BD0032802D0042809D102E000F0A6F905E000F051FAFF2801D100F061FAFFF7E7F9FFF7F3F910BD10B500F089FAFFF7BB
:405FC000DFF9FFF7EBF910BD70B504460025FEF783F8002C06D0A079012803D8214602F003FE00E00125284670BD01460120002902D050200880002070470000014601206A
:40600000002905D003485422007850430880002070470000D20E002010B502460D49FE204870032410460DF021FA002810D10DF0C5F900280CD105F01DFD002808D100F0A0
:4060400057FC002804D105F0E5F9002800D10024204610BDD00E002002480021018280210180704700102E4070B50025044600280ED0A07901280BD8FEF72EF8A07900284F
:40608000204602D003F08CF903E003F061F900E00125284670BD0000014610B50120002904D006220248FDF7D6FF002010BD0000DC0E002001460120002903D008780249D4
:4060C0000870002070470000D20E002010B5FFF757F9012801D1FFF759F910BD0148007A704700008C17002038B504460120002C20D0617801291DD800290BD0FF25E5354B
:40610000FDF7EAFF0C4828180088C0B22070072803D00EE0FF25CD35F2E70020694608706846FFF74FF969460878012801D108202070002038BD000000102E4010B50748B9
:406140000024807B002806D00448203002F056F9012800D1FE24204610BD0000CC160020014A002192681047D00E002008B500226B461A7026280CD0094A342852680BD091
:40618000352805D1900703D50021352005F044FD08BD19462620F9E7D007F9D03420F5E7D00E002001490872704700008C170020F8B504460120002C26D06178012902D923
:4061C0002278092A20D8002905D0FF25E5352078092803D004E0FF25CD35F8E708202070FDF77AFF2078114F114E08280DD00020FFF72AF970780128207810D00D496918F7
:406200000880FE2070700020F8BD0120FFF71CF90720B8810549203188800120F2E7B8810248217820308180EBE70000C0112E40D00E002000102E4010B509480024807BA7
:4062400000280BD0FFF79CF8062801D0032800D12824FFF773FFFE2800D12824204610BDCC16002070B50E46050001D0002400E00C4C002C11D0E28A500609D5D107C90F62
:40628000022003F02BF9E08A40218843E08204E0D107C90F012003F021F93146284602F0FFFD70BDEC160020F8B50546002004460D4E009013E022466946284601F0F6F825
:4062C0000098002801D00DF0B3F8A878214602F0C9FBA878214602F0B7FB641CE4B2308AA042E8D8F8BD0000B4170020F8B54E4CFFF746F8012847D14C480078002843D0E8
:4063000002F056FD00283FD004F080FA00283BD0474E7078C00703D000F010FD012833D0307E00287DD17078002500285BD0000706D540488089070B00F02EF9384370D124
:406340003B484178684604F0ABF821793A4CA2788918C9B2814262D802F02AFD002860D0344860300789324E203602F06BFB6846008802F095FB02F031FC30490988884263
:4063800003D10120FFF73AF84BE02D49012008702748807B00281DD0002F1BD04036F07E002817D123486030008821494000C031498981420AD26078002807D103F0BCF8EB
:4063C0002049088A03221202104308822078002800D0257002F09AFB0120FFF709F800F019FC174C15E002F0E3FC002819D0102402F0F4FB214602F0DDFA02F051FB104CAA
:406400000120207002F082FB0020FEF7F1FF00F001FC20780128B4D1FEF77EFF25700020F8BDFF20F8BD0000C4160020680E0020CC160020A0102E40F60E0020080F002049
:40644000E20E0020E0112E4010B50848FF244078002809D102F0ACFC012805D1FEF76AFE0720FEF7CBFF0024204610BDCC16002038B5FEF785FF012801D0002038BD02F01F
:4064800097FC00280AD0114C6078C00703D000F055FC012802D0207E002801D0FF2038BD617800290FD0684603F0FAFF022806D96846008802F0F4FA012002F031FB032095
:4064C000FEF79CFFD9E70020F7E70000CC16002038B51E4CFEF754FF042813D0052811D0062812D003282AD007280AD100206946087002460120FEF73BFEFEF741FF012815
:40650000FBD138BD00F0A6FB38BD02F021FB00F0A1FB02F09DFB8007800F0228F4D10C4841880029F0D05B21095D0029ECD101210170A07D0140022002F0D0FF38BD02F062
:406540000BFB0120FEF75AFF38BD0000EC160020F60E0020F8B50646002403F02DF80546304603F043F803460A480021068A0DE001228A401046174628401F40002803D0AC
:40658000002F01D1224394B2491CC9B28E42EFD82046F8BDB417002070B500252C460A4E03E0002C01D0002000E030460079002803D02046FFF7CEFF0543641C2406240E87
:4065C000EFD0284670BD0000EC1600201CB50020694648706846FFF787FD01AA69460A20FEF7C6FD6946042008561CBD70B50D4601F03CFB04000BD02079002808D0FDF74D
:406600006BFDE178A0782A4602F0D0FC002070BD022070BD0148007870470000C41600204030C07E002800D00120704700B500F001F800BD902148430749084A40186030A6
:40664000417F491CC9B24177D289914201D300214177C8B270470000CC160020B417002013B501F003FB04000BD001F0A0FE002807D0214601AA0A310620FEF779FD0020A7
:406680001CBD02201CBD000010B50C4601F0EEFA00280AD001F08BFE002806D0224604490A20FEF765FD002010BD022010BD0000AD160020F3B581B007460146002602987A
:4066C00002F072FF0446002F01D0002500E0154D002D21D0284601F0FFFA032C04D13946029802F0BDFF06463846029902F0ACF9032C06D0002C10D00121384601F0F2FBBA
:4067000003E03146384603F0A7F9284602F08AF80221284602F0A0F8FEBD3846029902F093F9FEBDEC16002010B5044600F05AFA002804D103F048FE002801D00C2010BD47
:406740002078611C02F034FDFF2801D01F2010BD02F07AFDFF280AD02178621C02F0FCF8044821780068026B601C904710BD072010BD00001C0F002010B503F025FE00285A
:4067800001D00C2010BD02F0F5FC03480068C06A8047002010BD00001C0F002070B50D46044610210CF084FD1021601806460CF07FFD334610221946204603F033FE1021AE
:4067C00030460CF075FD02202870204604F058FD70BD0000F8B504464078217802028006870FE0781143A67809050002090D0643084601F03BFA00210546F2B2002812D0F0
:40680000002C10D0022F0ED0032F0CD0002A0AD00279092A07D0002A05D0134A5A23527E1B5C9A4207D82889002104F05EFC20460CF0FEFDFF21002914D10C4822460068FC
:406840002946436930469847C0B2FF280AD128464030817EF2B2491C8176FF232146284600F0E3F8F8BD000084160020380F00200020704710B5044603F0A6FD002801D04A
:406880000C2010BD2078611C02F092FCFF2808D002F0CAFB044821780068426B601C904710BD1F2010BD00001C0F002010B500F05FF904F0AFFD002010BD10B50446007802
:4068C0006178E2780843A17811430843217908436179084305D003F069FD002803D00C2010BD122010BD204602F05AFD002010BD10B5FCF79DFF02F081FE044803F0D4FEC5
:4069000002F09CFB012000F003F810BD94160020F1B586B003A8009005A8019028489F22817A114081726846FDF7F4FB002845D169460989C90705D0224806990068C26816
:406940006846904769460989890706D5002835D11D480068816A0698884700282ED11B4E0025757075737571F575357675767575B570F570B5713746F5730120CC373873DD
:406980001F20F880FF2130467972A0300176457600F0E4FA00242046069901F0B3FC002803D1641C2406240EF5D0FD720749BD72B573C0310D704D704D600D7207B0F0BD98
:4069C00084160020380F00201C0F0020CC16002070B505460E46084602F0EEFD0446304602F004FE0121A9400A46224001400A4301D0012070BD002070BD10B50446084672
:406A000002F0F4FD0121A140014201D0012010BD002010BD10B5FEF7B3FC032804D102F09BF80120FEF7EAFC10BDFEB51C4616460F46054601F0F6FEA878FFF7F7FD024682
:406A40000190334639460094284600F00DF8002808D1A8780199FFF705FCFF2C02D138460CF0E6FCFEBD0000FFB585B005460E980C46FF2810D02B49C00009680A5840183D
:406A80000179C0795278814201D9012601E09006860F6846038108E06078A1788006860FE0780002014368460181284601F08AFC070007D021462846079A00F08BFC384667
:406AC00009B0F0BD304600F039FD04AE0346039002AA29460096204600F0C5FB3C20405D002818D0284601F06DFC012813D0684600890096C0B20190A878231DFF22079971
:406B000002F082F968460089039BC2B2A878079902F0C2FCD3E7684600890021C0B20091E9E70000340F0020F8B5104F002500242846FFF70FFD060012D00EE03046E040B6
:406B4000C007C00F07D02146284601F073FF21462846FFF7AFFD641CE4B2388AA042EDD86D1C2D062D0EE2D0F8BD0000B417002010B502F063FA0020FFF7CAFE0CF0EEFC59
:406B8000002010BDF8B5002400F0D2F80123012800D10124104F00203E4620360425082203E0002801D0002100E031460979002907D001290BD002290BD011468140214311
:406BC000CCB2401C0006000EEBD07C70F8BD1C43F7E72C43F5E70000CC16002010B5FFF7D1FF10BD10B5044604F066FD002802D1601C00F001F810BD1CB500240094062225
:406C000069460194FDF718FA002800D1122420461CBD000070B50E4CFCF70FFC0546FEF7AFFB062802D02078012803D02846FCF708FC70BDFCF712F92846FCF702FCFEF7BD
:406C40009FFB0628F5D020780028E5D170BD0000E20E002010B5FCF7F0FB0446FEF790FB012809D0FEF78CFB022805D0FCF7F6F82046FCF7E6FBEEE72046FCF7E2FB10BDF7
:406C800010B50B4681791943817103D08078114602F0D0FB10BD10B582798A43827102D1807802F0DBFB10BD30B50C4C0220A28A0B4B9978002901D0022906D11D785B7894
:406CC000EB18282B01D9032002E0032900D101205105490DC0020143A18230BDC0112E40EC0E002000B500F029F8002807D0012805D0032801D0042801D0002000BD01206C
:406D000000BD014600B50020C90701D000F010F800BD014600B50020C90701D000F008F800BD00000148006870470000E40E002001480088000A704720102E400448008B39
:406D4000410501D5042070474007800F7047000000102E4010B501F041FF044601F088FF0146204601F062FF10BD00000148406870470000E40E002038B50446000610D5B1
:406D8000FFF7DCFF01280CD1684601F0F5FE6846007800F023FB012001F0ACFD0220FFF71DFF600708D507480179012904D1002101712620FFF7DAF9034800680169204616
:406DC000884738BDF00E00201C0F002070B505460C49007800240870FFF7AAFF012803D1FFF7B8FF022803D3284602F045FA07E0284600F0EBF8040002D1034801210170C8
:406E0000204670BDEC0E00208C17002070B50446FFF78EFF002801D00C2070BDA27B01211F48002A827801D00A4301E05208520082706279012A14D0C17849084900C17049
:406E4000184D2868016820468847207901280CD06188208803F07AF82080207904280FD015E0C2780A43C270EAE72868C168E01D8847E01D02F080FA0B48808C208006E055
:406E80002868C168E01D8847E01D02F075FA074920798870204602F0FDF9002070BD0000CC1600201C0F002084160020EC0E002008B50178FFF73CFF814201D10C2008BD65
:406EC000002914D0072069460870FFF70BFF012807D10121684600F0D9F8012801D0092008BDFFF7E1FE02F009FA012011E0FFF7F9FE012806D1684601F03EFE68460078F3
:406F000000F0A0FA02F0F0F9FFF712FF0028FBD10220FFF763FE002008BD000070B505460C49007800244870FFF702FF012803D1FFF710FF022803D3284602F05BFA07E0E5
:406F4000284600F05DF8040002D1034801214170204670BDEC0E00208C17002038B568460CF0FCF9002801D01F2038BD01210098C90201804180002505714571857107210A
:406F80004173857302F086F9009C202200212046FDF76AF825702A460021601CFDF764F8204602F069F9204602F024FA00980CF03FFA062200210448FDF756F802480C38A5
:406FC0008560002038BD0000F00E0020F8B504460025684600950CF0C1F9002801D007250AE0064E009830602278611C401CFDF732F83168207808702846F8BDE40E00206A
:40700000F8B504460025684600950CF0A7F9002801D007250AE0064E009870602278611C401CFDF718F87168207808702846F8BDE40E00200346084800B5834209D81846A3
:4070400000F014FE002804D00089984201D1012000BD002000BD0000FF0E0000074A9179491C8906890E917138220A4092014907090E11430843024908407047CC160020A4
:40708000FF0E0000C006C00E70470000F8B507460E4600240D4803E0002C01D0002500E005462979002905D0641C2406240EF3D00020F8BD0021204601F024F92E712046D3
:4070C000FFF7CCFF28813C700120F8BDEC16002010B503F0DBF90222002100F003F801F059FF10BD10B5094B40074907000F090F185A595A40185043C0086421FCF774FE17
:40710000002800D1012080B210BD0000FC5F0100F7B53D20405C88B015460C46002802D02878042802D200200BB0F0BD6946087200262046FFF774FA012800D0012620468F
:4071400003A938300191009023460327A17E34333246206A03F0C2FA02A8089900900B46019120463A4603A9243003F03BF902466846007A2870204601F0B0F81046D3E72D
:40718000FFB587B00C4605461078694608723D20005D1746002826D000262046FFF740FA012800D00126204603A93830019100902346A17E34333246206A03F08FFA02A8D2
:4071C0000090291D019120462B1D03A924300A9A03F008F902006846007A388002D1204601F07CF810460BB0F0BDF0B505463C20405C89B016460C4600280CD03078694679
:407200000873002806D000272046FFF709FA012803D003E01F2009B0F0BD012703200890204604A93830019100902346E17E34333A46E06903F052FA6846007B03A92818FF
