:400000000040002011000000791000007910000080B500AF01F064F880B500AF294B12221A6003F013FC284B181C03F0E1FD012003F01CFC302003F025FA244B244A1A60A7
:40004000244B8022D2051A60234B234A126802210A431A60214B224A1A60224B00221A60214B214A126808218A431A60FA23DB00181C03F053FA1D4B181C03F0C7FA1C4BA0
:40008000E82252011A601B4B1B4A1A601B4BC82252011A60174B1A4A1A601A4B822212061A60194B802212031A60184B41221A60174B40221A60074B8022D2051A60BD46D1
:4000C00080BDC04630001040001BB70004010B40060000800C020B4078002E407C002E406A2D000064F02E406CF02E40DC050000040301400000014041FF008000030140DB
:4001000040FF008008010B4000010B40180101400801014080B582B000AF72B6444B00221A60FB1D00221A7023E0FB1D1A78131C5B009B185B003F4A9B183B603B681A783E
:40014000597809020A43997809040A43DB781B061343191C3B681A795B791B0213439BB2081C191C01F040F8FB1D1A78FB1D01321A70FB1D1B78012BD7D92F4BEE221206F8
:400180001A602E4B992212041A602D4B992212041A602C4B992212041A602B4B992212041A602A4A294B1B78DBB202210B43DBB21370274A264B1B78DBB23C218B43DBB278
:4001C00014210B43DBB21370204A204B1B78DBB216210B43DBB213701E4BD82212041A601D4B60221A601D4BC82252031A601C4B802212011A601B4BA0221A601A4BC422E7
:4002000092021A60194BA0221A60194B02221A60184B30221A60184B02221A60174B30221A60FFF7F9FE00F0EFFFBD4602B080BD6CF02E40487701000000024000030240E2
:4002400000500F4010500F4030500F4000700F4001700F400800044000010440080104400C010440000304400803044018030440000404400804044000050440080504408C
:4002800010B5064C2378002B07D1054B002B02D0044800E000BF0123237010BDA811002000000000A46F010008B5084B002B03D00748084900E000BF07480368002B00D1DD
:4002C00008BD064B002BFBD09847F9E700000000A46F0100AC110020280C002000000000B0B58AB002AF786039607B68262B00D1ECE023D8052B00D191E00DD8022B00D10C
:4003000098E102D8012B41D08CE1032B00D181E0042B00D18CE085E1232B00D1AAE006D8212B00D18DE0222B00D19EE07AE1242B00D1ACE0252B00D1BFE073E1412B00D189
:400340004CE111D8292B00D136E106D8272B00D1EFE0282B00D1F4E064E12A2B00D134E12C2B00D18EE05DE14C2B00D112E106D8422B00D143E1432B00D1FCE052E1572BC4
:4003800000D141E1FA2B00D147E14BE11C23FC18002001F0FDFA031C23801C23FB181B88002B07D01C23FB181B88A44A101C191C04F046FAA24B181C04F042FA1023FB18DD
:4003C00000229A711023FB18181C05F001FA1F23FB1806221A7013E01F23FB181B78013B1022BA18D35C1A1C964B181C111C04F027FA1F23FB181A781F23FB18013A1A7087
:400400001F23FB181B78002BE6D18F4B181C04F093FA10E18D4B181C04F08EFA0BE13B681B781A1C8A4B181C111C04F009FA02E13B681B781A1C874B181C111C04F000FAF5
:40044000F9E03B681B78191C3B685B781D1C3B689B781C1C3B68DB781A1C7F4B0092181C2A1C231C04F0ECF9E5E07C4B181C04F063FAE0E03B681B68794A101C191C04F072
:40048000DFF9D8E0774B181C04F056FAD3E03B68BB61BB691B78191CBB695B781D1CBB699B781C1CBB69DB781A1C6F4B0092181C2A1C231C04F0C4F9BDE03B681B781A1C09
:4004C0006A4B181C111C04F0BBF9B4E0684B1B781A1C684B181C111C04F0B2F9644B1B78042B25D1644B181C04F026FA012002F09DFD002002F0E6FD012002F0BDFD02F0BC
:4005000015FE02F089FE02F029FEC04602F0F2FE011C5A4B1A6880231B02134001D0012300E00023CB18002BF0D103F00FF982E081E0534B181C04F0FFF9012002F076FD0E
:4005400079E0504B181C04F0F7F91C23FC18002001F01EFA031C23801C23FB181B88002B08D01C23FB181B88344A101C191C04F067F960E05FE00E23FB18181C10F084FC9A
:400580000E23FB181B881A1C3F4B181C111C04F057F950E03B689B891A1C3C4B181C111C04F04EF93B680433181C00F09DFA3B68186811F0C7F83EE03B681B781A1C344B1E
:4005C000181C111C04F03CF935E03B681B781A1C304B181C111C04F033F92CE02E4B5B78191C2D4B1B781A1C2C4B181C04F028F900F068FB00F0C6F900F018FD1BE0284BF1
:40060000181C04F099F916E03B685B881A1C254B181C111C04F014F90DE0234B181C04F08BF908E0214A7B68101C191C04F008F9C04600E0C046BD4608B0B0BDA86F0100BD
:40064000CC6F0100FC6F01000470010008700100247001004870010064700100A8700100E8700100147101003C710100807101006E230020A0710100C471010008022540C1
:40068000D0710100F47101001872010048720100687201008C72010074230020B8720100E072010000730100387301005873010080B500AF03F03CFA021C8023DB00134055
:4006C00025D0144B1B78032B17D1134B1B685A1E114B1A60104B1B68002B0ED10E4B0A221A600E4B1B7801225340DAB20B4B1A700A4B1B78181C02F099FC094B1B685A1CE9
:40070000074B1A608023DB00181C03F01FFABD4680BDC0466E2300202C0C0020300C0020C411002080B500AF03F0EAF80E4B181C02F024FC0120012103F020F901200121A5
:4007400003F048F9094B0120191C03F0A9F9012003F034FA80235B00181C03F071F903F0A5F8BD4680BDC046B1060000CC0C000090B583B000AF224B1B78032B03D0204B3D
:400780001B78022B39D1FC1D032005F019F8031C2370BC1D03F035FA031C2370FB1D1B78032B1ED107F00AF8031E042B04D007F005F8031E062B1BD102F09CFD011C114BB3
:4007C0001A6880231B02134001D0012300E00023CB18002B02D102F083FF09E002F066FF06E006F0EBFF031E022B01D002F05EFFBB1D1B78181C03F008FABD4603B090BD0C
:400800006E2300200802254090B583B000AF62B602F024FD284B181C04F08EF8012002F051FC012002F002FC012002F025FC234B181C00F033FFFFF775FF04F0CDFFFFF79C
:4008400097FF1F4B1B78022B34D11E4B1B78002B30D01D4B1B68002B0CD01B4B00221A6000F0B8F804F0B8FF184B1B88012B01D100F06EFA164B1B78002B1BD002F03AFDBE
:40088000011C144B1A6880231B02134001D0012300E00023CB18002B0CD1BC1D002000F097FF031C2380BB1D1B880B4A101C191C03F0C6FFC1E7C0466C730100E1020000A9
:4008C0006E2300203D0C0020C41100205423002058230020080225409073010080B584B000AF786039600F23FB183A6892781A701E4A7B68101C191C03F0A2FF7B68233BBF
:40090000FF3B052B28D89A00194BD3181B689F460F23FB181B78174A101C191C03F090FF0F23FB181B78002B03D1134B01221A8019E018E00F23FB181B78104A101C191C6A
:4009400003F07EFF0F23FB181B78002B03D10A4B00221A8007E006E0094B181C03F0ECFFC04600E0C046BD4604B080BDB473010038740100C8730100C8110020F47301009A
:400980002074010090B585B002AF104B181C00F081FCBC1D3B1D0093002000210022022300F0D8FC031C2380BB1D1B88002B0AD13B1D1B88002B06D0054B1B8801221343C0
:4009C0009AB2034B1A80BD4603B090BDDD080000C811002090B585B002AF2E4B1B78DBB2002B53D12C4B1B685A1E2B4B1A602A4B1B68002B4AD1284B32221A60274B1B78E9
:400A00000133DAB2254B1A70244B1B78142B02D9224B02221A70224B1B88012B16D1BC1D204B1E4A00921A785B781B021A4300231204120C1B0C1B041343181C002100221B
:400A4000012300F089FD031C238008E0BC1D134B00200021012200F029FC031C2380BB1D1B88002B0AD0BB1D1B880F4A101C191C03F0E6FE0A4B00221A8007E0074B1B7857
:400A80001A1C0A4B181C111C03F0DAFEBD4603B090BDC04670230020340C0020380C0020C811002074230020507401006474010080B586B000AFF860B9607A6000237B614D
:400AC00009E0BB685A1CBA601B78181C02F0FCFB7B6901337B617A697B689A42F1DB7B68181CBD4606B080BD80B584B000AF78600E23FB1800221A8016E07B681A680E23BF
:400B0000FB1800215B5ED3181B781A1C0E4B181C111C03F095FE0E23FB181B889BB201339AB20E23FB181A800E23FB1800229B5E7A6892889342E0DB044B181C03F0FCFEE7
:400B4000BD4604B080BDC046847401008C74010080B584B000AF786039603B68FB604C4A7B68101C191C03F06BFE7B68873BFF3B0B2B00D982E09A00464BD3181B689F46F6
:400B8000FB689B78191CFB68DB781A1C424B181C03F056FEFB689B78002B03D13F4B01221A8072E071E0FB689B78191CFB68DB781A1C3B4B181C03F043FEFB689B78002B11
:400BC00003D1364B00221A805FE05EE0354B181C03F0B2FE344B00221A7056E0334B181C03F0AAFE304B01221A704EE0304B181C03F0A2FE2F4B00221A7002F041FB44E052
:400C000002F02CFB2C4B181C03F096FE294B01221A703AE0FB689B78002B1FD1224B1B78012B03D1FB68DB78082B07D01E4B1B78002B13D1FB68DB78052B0FD1FB685B68E6
:400C40001B681B7802221340DBB2002B03D0002002F012FA02E0012002F00EFAFB689B78191CFB68DB781A1C144B181C03F0E8FDFB685B68181CFFF737FF06E0104B181C44
:400C800003F05AFEC04600E0C046BD4604B080BD90740100F4750100A474010054230020E07401001C7501003C0C002040750100647501003D0C002080750100A075010096
:400CC000DC75010090B585B002AF1F4B181C01F057FA1E4B00221A80BC1D3B1D0093002007210022022301F027FC031C2380BB1D1B88002B0AD13B1D1B88002B06D0134B6E
:400D00001B88012213439AB2104B1A80BC1D3B1D0093002004210022022301F00DFC031C2380BB1D1B88002B0AD13B1D1B88002B06D0064B1B88012213439AB2034B1A802C
:400D4000BD4603B090BDC046510B00005423002090B585B002AF02F0DBF9031E1BD1764B1B78002B06D1744B1B780133DAB2724B1A7013E0704B1B78012B0FD16F4B392268
:400D80009A706F4B01221A606B4B1B780133DAB2694B1A7002E0684B00221A70694B1B78DBB2002B00D0C4E0654B1B685A1E644B1A60634B1B68002B00D0BAE0604B0A2266
:400DC0001A60614B1B780133DAB25F4B1A705E4B1B78282B02D95C4B04221A705A4B1A78564BDA70BC1D594B00200021012201F0BBFA031C2380BB1D1B88002B00D098E02C
:400E0000534B181C03F01CFD7B1D00221A700EE07B1D1B78494AD35C1A1C4E4B181C111C03F00EFD7B1D1A787B1D01321A707B1D1B78072BECD9484B181C03F07DFD434B24
:400E40001B78002B16D1BC1D444B3C4A00921A785B781B021A4300231204120C1B0C1B041343181C00210422082301F077FE031C238015E0BC1D394B304A00921A785B78EA
:400E80001B021A4300231204120C1B0C1B041343181C00210722082301F060FE031C2380BB1D1B88002B36D1244B00229A70234B0022DA70254B1B78002B16D1BC1D274B89
:400EC0001E4A00921A785B781B021A4300231204120C1B0C1B041343181C00210422082301F03CFE031C238015E0BC1D1B4B134A00921A785B781B021A4300231204120C3A
:400F00001B0C1B041343181C00210722082301F025FE031C2380BB1D1B88002B09D0BB1D1B880F4A101C191C03F08AFC0D4B00221A80BD4603B090BDCC110020D011002054
:400F4000400C002070230020D81100203C0C002024760100387601004076010074230020447601005423002080B582B000AF78603960254A7B68101C191C03F061FC7B686A
:400F8000E93BFF3B052B34D89A00204BD3181B689F461F4B181C03F0CFFC1E4B01221A802EE01D4B181C03F0C7FC1A4B00221A8026E03B685B681B68181C00F083FD031C8A
:400FC0001A1C164B1A803B685B681B680233181C00F078FD031C1A1C114B1A800F4B1B88191C0F4B1B881A1C0E4B181C03F028FC06E00D4B181C03F09FFCC04600E0C046C9
:40100000BD4602B080BDC04668760100307701007C760100DC110020A4760100DE110020E0110020CC7601001877010090B583B000AF0F4B181C01F0B9FEBC1D3B1D012074
:401040000021022201F0BEFE031C2380BB1D1B88002B0AD13B1D1B88002B06D0054B1B88012213439AB2034B1A80BD4603B090BD690F0000DC11002080B500AF03F094FBB1
:40108000031C1B680C2B00D1FEE7FEE780B584B000AF7860104B1A687B68D3181A1C0F4BD21A8023DB009A4209DC0B4B1B68FB60094B1A687B68D218074B1A6007E003F0E9
:4010C00073FB031C0C221A6001235B42FB60FB68181CBD4604B080BD440C00208023002080B586B000AF224B7B61224B3B61204B7B6135E03B691B68FB603B695B68BB6015
:401100003B699B683B6000237B600CE0FB681A68BB681A60BB680433BB60FB680433FB607B6804337B607A683B689A42EED13B69DB683B6000237B6008E0BB6800221A605B
:40114000BB680433BB607B6804337B607A683B689A42F2D13B6910333B617B69013B7B617B69002BC6D103F025FBFFF74DFBFEE701000000BC7C010080B582B000AF154BD6
:40118000144A126801218A431A6000237B600FE07B68032B04D8104B7A689200D35800E00E4B0F4A796889008B507B6801337B607B682F2BECD9FEF7ADFF0A4B00221A60BD
:4011C000044B044A126801210A431A60BD4602B080BDC04600001040000000007910000000000020C000002080B582B000AF786039607A683B68101C00211A1C03F018FB89
:40120000BD4602B080BDC04680B500AF0A4B03221A600A4B03221A60094B802212061A60084B80221A60084B00221A60012000F00DF8BD4680BDC046300030403000314067
:4012400000003A4000033A40000E3F4080B584B000AF021CFB1D1A700B4B1B68FB60FB1D1B78002B05D0FB68802212061343FB6003E0FB685B005B08FB60034BFA681A60DC
:40128000BD4604B080BDC04680033A4080B500AFBD4680BD80B582B000AF7860024B7A681A60BD4602B080BDE411002090B587B000AF041C081C111C3B60FB1D221C1A705E
:4012C000BB1D021C1A707B1D0A1C1A701623FB1800221A80FB1D1B78002B0BD1BB1D1B78002B07D17B1D1B78012B03D13B681B78642B04D91623FB1801221A8020E0FB1D10
:401300001B78134ADB00D3185A880823FB181A817B1D1B789AB20823FB189A800823FB183A681A600823FB18181C00210022002310F08AFF031E03D01623FB1801221A80B5
:401340001623FB181B88181CBD4607B090BDC04654770100B0B586B000AF051C0C1C101C191CFB1D2A1C1A70BB1D221C1A707B1D021C1A703B1D0A1C1A701623FB1800223F
:401380001A80FB1D1B78002B07D1BB1D1B78002B03D17B1D1B78012B04D91623FB1801221A8028E07B1D1B78002B04D12C220823FB181A8108E0FB1D1B78124ADB00D3182F
:4013C0009A880823FB181A813B1D1B789AB20823FB189A800823FB18BA6A1A600823FB18181C0021002210F0F9FE031E03D01623FB1801221A801623FB181B88181CBD46B8
:4014000006B0B0BD5477010090B587B000AF78601723FB1800221A701623FB1800221A70474B1B68002B00D182E07B689B892C22934270D11723FB181B78424ADB00D318B9
:401440005B885A1E4049131C9B009B189B00CB185A6880235B03134050D07B681A1D7B6816217C18101C00211A1C402310F0ECFE031C23701623FB181B78002B42D10C23C1
:40148000FB187A6812881A800C23FB181722BA1812789A700C23FB180022DA700C23FB1800225A607B685B68181C00F00BFB031C1A1C012313409BB2002B09D0204B1B687B
:4014C000912251000C22BA18081C111C984709E01B4B1B682422FF32111C0C22BA18081C111C9847194B1B78012B0BD1184B1B7802221343DAB2164B1A7003E01623FB18FD
:4015000006221A70134B1B78DBB201229343DAB2104B1A700CE01723FB181A781723FB1801321A701723FB181B78002B00D17CE71623FB181B78181CBD4607B090BDC046DD
:40154000E4110020547701007877010060230020582300207723002090B587B000AF3C1D20800C1C101C191CFB1C221C1A70BB1C021C1A707B1C0A1C1A701623FC18FB1CEC
:401580001878BB1C19787B1C1A78BB6AFFF78EFE031C23801623FB181B88002B45D1264B1B78022B05D01623FB180422FF321A803BE02C23002B14D02C235A1E1F49131C57
:4015C0009B009B189B00CB1808339B685B68181C00F078FA031C1A1C012313409BB2002B05D11623FB18802252001A801DE0FB1C1B78134ADB00D3185A880823FB181A810F
:401600000823FB18BA6A1A607B1C1B789AB20823FB189A801623FC183B1D0822BA181868111C10F039F8031C23801623FB181B88181CBD4607B090BD6E23002078770100F4
:401640005477010080B500AF094B00221A70094B00221A70084B00221A7000F013F8074B00221A70064B00221A70BD4680BDC04677230020702300207623002058230020BE
:401680006023002080B500AFFFF700FE01F072FC00F072FD01F086FBBD4680BDB0B594B004AF78603E23FB1800221A802823FA183E4B111C1A1C1423081C111C1A1C03F0E1
:4016C000AEF83B4B1B78002B04D1FFF7BBFF384B01221A707B68002B5CD0364B7A681A603E23FB181B88002B29D11023FB181C22BA185A601023FB182022BA181A601023E1
:40170000FB1800221A812023FB181B221A802023FB181B225A802023FB1804221A711C23FB1800221A703E23FC181023FA180E23FB18101C191C04F02BF9031C23803E23A0
:40174000FB181B88002B29D13E23FC181A481B49AE231A012823FD1805230093184B0193184B02932B1C04F069F8031C23803E23FB181B88002B11D1134B01221A703E236F
:40178000FC18124B181C32213F2210F00FFD031C238003E03E23FB1801221A803E23FB181B88181CBD4610B0B0BDC0465C770100E81100205C2300203D1D0000C80000209F
:4017C00000850100790200006E2300207877010090B593B000AF021CFB1D1A704623FB1800221A80644B1B781A1C012313401ED04623FC18FB1D1B78181C0BF0A9FD031C1F
:4018000023804623FB181B88002B10D15A4B1B7801229343DAB2584B1A70574B1B781A1C0223134003D04623FB1828221A804623FB181B88002B03D0FB1D1B78002B2ED0E9
:401840004D4B1B781A1C0223134028D04B4B1B78042B24D8494B1B781A1C131C9B009B185B009E2292009A18454BD3185A1C4623FC184449FB1D1B78081C111C0A220BF0EC
:401880004DFD031C23804623FB181B88002B06D1394B1B7802229343DAB2374B1A704623FB181B88002B03D0FB1D1B78002B5CD0314B1B781A1C0C23134056D02E4B1B783A
:4018C0001A1C0823134022D00823FB18181C0021322202F0ADFF4623FC180823F9182A4AFB1D1B78081C111C32220BF017FD031C23804623FB181B88002B07D11E4B1B7851
:4019000008229343DAB21C4B1A702EE02DE03C23FB1800221A6000225A6000221A811B4B1B781A1C131C9B009B185B009E2292009A18134BD3185A1C4623FC183C23F918B1
:40194000FB1D1B78081C111C0A220BF0E7FC031C23804623FB181B88002B06D1064B1B7804229343DAB2044B1A704623FB181B88181CBD4613B090BD582300207423002081
:401980000085010064230020798701000C12002090B585B000AF021CFB1D1A70FB1D1B78022B04D90E23FB1801221A804BE0294B1B78042B42D1284B1B78DBB21A1C0423B8
:4019C00013403BD1FB1D1B78002B0BD1234B1E221A82224B5B6820221A80204B5B6820225A8010E0FB1D1B78012B0CD11B4B96221A821A4B5B68C822D2001A80174B5B6835
:401A0000C822D2005A80164BFA1D12781A700E23FC18124B181C0EF0CDFC031C23800E23FB181B88002B08D10B4B1B78DBB204221343DAB2084B1A7005E004E00E23FB18D2
:401A40000422FF321A800E23FB181B88181CBD4605B090BD6E23002077230020780C00207623002080B584B000AF78600A1CFB1C1A700023BB60BB68002B20D07B689A7964
:401A8000BB681A700F23FB1800221A7012E00F23FB181B780133BA68D3180F22BA18127879688A5C1A700F23FB181A780F23FB1801321A700F23FB181B78052BE7D9BD46FB
:401AC00004B080BD80B582B000AF78607B681B789AB27B6801331B789BB21B029BB213439BB2181CBD4602B080BDC04690B585B000AF78600F23FB1800221A707B689B891C
:401B00000B22934237D17B681A1D7B680F217C18101C00211A1C402310F096FB031C23700F23FB181B78002B1DD17B685B68181CFFF7C8FF031C1A1C022313409BB2002BE4
:401B400008D0104B1B68822251007A68081C111C984708E00B4B1B680622FF32111C7A68081C111C9847084B1B78DBB201229343DAB2054B1A700F23FB181B78181CBD466E
:401B800005B090BD5C2300207723002090B585B000AF78600F23FC187B68181CFFF7A6FF031C2370324B1B78DBB21A1C012313400CD00F23FB181B78002B07D10F23FC18D8
:401BC0007B68181CFFF720FC031C2370284B1B78DBB21A1C012313400CD00F23FB181B78002B07D10F23FC187B68181C00F0AAFD031C23701E4B1B78DBB21A1C0123134037
:401C00000CD00F23FB181B78002B07D10F23FC187B68181C01F022F9031C2370144B1B78DBB21A1C012313401FD10F23FB181B78002B16D00823FB1812229A707B689A894B
:401C40000823FB181A800823FB180F22BA181278DA707B680822BA181868111C0FF0DEFC03E07B6818680FF06DFDBD4605B090BD7723002080B582B000AF7860BD4602B001
:401C800080BDC04680B500AF034B00225A70024B00221A70BD4680BD7423002080B582B000AF7860BD4602B080BDC04680B500AF01F03EF8BD4680BD80B584B000AF7860B2
:401CC0000E23FB1800221A707B689B79002B1CD10F23FB1800221A7012E00F23FB181B787A68D35C002B04D00E23FB1801221A700BE00F23FB181A780F23FB1801321A7065
:401D00000F23FB181B78052BE7D90E23FB181B78181CBD4604B080BD80B582B000AF021CBB1D1A80BD4602B080BDC04680B582B000AF7860BD4602B080BDC04680B588B0EB
:401D400000AF021C3960FB1D1A70C74B1B78DBB201221343DAB2C44B1A70FB1D1B78412B00D157E123DC212B00D1C1E00DDC022B00D193E002DC012B3BD0DDE1052B00D180
:401D800091E0062B00D193E0D6E1272B00D1E9E006DC242B00D1DBE0262B00D1EEE0CBE1282B00D1E6E02A2B00D1D6E0C4E14F2B00D1BCE10BDC432B00D171E100DA4FE16C
:401DC0004C2B00D189E14E2B00D18BE1B4E1572B00D1AEE106DC502B00D1ACE1542B00D198E1A9E1712B00D10EE1FA2B00D196E1A2E11423FB1807221A701423FB18002241
:401E00005A701423FB18181C05F04AFD1423FB1807221A701423FB1801225A701423FB18181C05F03DFD914B1B68181CFFF744FF031E11D08D4B1B68181C03F0D1FC8B4B4A
:401E40001B68181C0021FFF70DFE884B1B68181C0121FFF707FE0DE0854B181C03F0C0FC834B181C0021FFF7FDFD814B181C0121FFF7F8FD03200EF04BF91023FB183F2216
:401E80001A701023FB1800225A701023FB18181C0EF05CF9774B04221A704DE13B68181CFFF7FCFE48E13B681A78734B1A7043E13B68BB61BB691B78002B18D1BB695B78E7
:401EC000002B0BD16D4B0422DA806C4B40229A806A4B6B4A1A60BB69684A5A60624B1B78DBB201229343DAB25F4B1A7024E123E15D4B1B78DBB21A1C2023134027D1614B35
:401F00001B78102B02D15F4B0522DA705E4B1A785C4B101C191C0EF00BFA031C1A1C0E23FB181A800E23FB181B88002B06D0574B1B680E22BA183620111C98474A4B1B78D3
:401F4000DBB201221343DAB2474B1A70F4E0F3E03B685A784E4B1A70EEE03B68181CFFF7E5FEE9E03B68181CFFF7E0FE414B02221A70E1E03F4B04221A70DDE03D4B1B7875
:401F8000022B40D0384B1B78DBB21A1C0123134039D0354B1B78DBB21A1C042313400BD0344B03221A70304B1B78DBB204229343DAB22D4B1A7026E02B4B1B78DBB21A1C3B
:401FC000082313400BD02B4B04221A70264B1B78DBB208229343DAB2234B1A7013E0254B1B78032B0FD1234B04221A70294B1B78002B08D10120FFF7CBFC031E03D11D4BE5
:4020000003221A7098E097E03B681B88181CFFF783FE91E01C4A3B68111C1A1C0223081C111C1A1C02F0FBFB134B00221A70164B1B781A1C131C9B009B185B009E22920042
:402040009A18154BD3180133144A111C1A1C0A23081C111C1A1C02F0E2FBFFF727FE6BE0FFF710FE68E0C04677230020940C00208C0C00206E23002070230020101200205B
:40208000A80B00200C0E0020742300205C230020602300207623002000850100642300203B685B88162B05D81E23FB183A6852881A8003E01E23FB1817221A803B681E2239
:4020C000BA1811881A8800231204120C1B0C1B041343181C0FF0ACFA2EE03B68181CFFF755FD29E0214B1B78DBB21A1C0123134003D03B68181C00F025FB1C4B1B78DBB257
:402100001A1C0123134004D03B68181C00F0A6FE12E011E03B68181CFFF7ACFD0CE0144B1B7801221343DAB2114B1A7004E0C04602E0C04600E0C0460C4B1B78DBB21A1C2C
:40214000112313400FD0094B1B78DBB201229343DAB2064B1A70074B1B68FA1D11783A68081C111C9847BD4608B080BD77230020582300205C23002080B500AFBD4680BDCE
:4021800080B582B000AF7860024B7A681A60BD4602B080BD1812002090B587B000AF041C081C111C3B60FB1D221C1A70BB1D021C1A707B1D0A1C1A701623FB1800221A8065
:4021C000FB1D1B78002B03D1BB1D1B78082B04D91623FB1801221A80BBE0BB1D1B78062B65D89A005E4BD3181B689F46FB1D1A781423F9185B48131C9B009B18DB00C318DF
:402200005B880B807DE0FB1D1A781423F9185548131C9B009B18DB00C3181833DB880B806FE0FB1D1A781423F9184E48131C9B009B18DB00C31820335B880B8061E0FB1DB4
:402240001A781423F9184748131C9B009B18DB00C31820339B880B8053E0FB1D1A781423F9184048131C9B009B18DB00C31808339B880B8045E0FB1D1A781423F918394860
:40228000131C9B009B18DB00C3180E339B880B8037E0FB1D1A781423F9183248131C9B009B18DB00C31814339B880B8029E0BB1D1B78D91FFB1D1A782A48131C9B009B184C
:4022C000DB00C3181B79994216DAFB1D1A782549131C9B009B18DB00CB1808331968BB1D1A78131C5B009B185B002A3BCA181423FB1812881A8003E01423FB1800221A800A
:40230000C0461423FB181B88002B04D11623FB1813221A801DE00823FB181422BA1812881A817B1D1B789AB20823FB189A800823FB183A681A600823FB18181C0021002239
:4023400000230FF081FF031E03D01623FB1801221A801623FB181B88181CBD4607B090BD947B01006C7B010090B587B000AF041C081C111C3B60FB1D221C1A70BB1D021C8F
:402380001A707B1D0A1C1A701623FB1800221A80FB1D1B78002B03D1BB1D1B78082B04D91623FB1801221A80BAE0BB1D1B78062B65D89A005E4BD3181B689F46FB1D1A7862
:4023C0001423F9185B48131C9B009B18DB00C3185B880B807DE0FB1D1A781423F9185548131C9B009B18DB00C3181833DB880B806FE0FB1D1A781423F9184E48131C9B0058
:402400009B18DB00C31820335B880B8061E0FB1D1A781423F9184748131C9B009B18DB00C31820339B880B8053E0FB1D1A781423F9184048131C9B009B18DB00C318083361
:402440009B880B8045E0FB1D1A781423F9183948131C9B009B18DB00C3180E339B880B8037E0FB1D1A781423F9183248131C9B009B18DB00C31814339B880B8029E0BB1D68
:402480001B78D91FFB1D1A782A48131C9B009B18DB00C3181B79994216DAFB1D1A782549131C9B009B18DB00CB1808331968BB1D1A78131C5B009B185B002A3BCA18142354
:4024C000FB1812881A8003E01423FB1800221A80C0461423FB181B88002B04D11623FB1813221A801CE00823FB181422BA1812881A817B1D1B789AB20823FB189A8008232D
:40250000FB183A681A600823FB18181C002100220FF064FE031E03D01623FB1801221A801623FB181B88181CBD4607B090BDC046B07B01006C7B0100B0B588B000AF051CA8
:402540000C1C101C191CFB1D2A1C1A70BB1D221C1A707B1D021C1A703B1D0A1C1A701E23FB1800221A801C23FB1800221A80FB1D1B78002B0FD17B1D1B78022B0BD8BB1D1B
:402580001B78082B07D8BB1D1B78022B03D9BB1D1B78052B04D11E23FB1801221A8063E0BB1D1B78032B16D17B1D1B78022B0DD1FB1D1A781C23F9184548131C9B009B1884
:4025C000DB00C31820331B880B804DE01E23FB1801221A8048E0BB1D1B78032B19D9BB1D1B78062B15D8FB1D1978BB1D1B78043B1A1C5200D21853001A1C0B1C9B005B18A7
:40260000DB00D31808331A1C314BD3180433BB6112E0FB1D1A782E49131C9B009B18DB00CB1808331968BB1D1A78131C5B009B185B002A3BCB18BB617B1D1B78002B05D10D
:402640001C23FB18BA6952881A800DE07B1D1B78012B05D11C23FB18BA6992881A8003E01E23FB1801221A801E23FB181B88012B26D01C23FB181B88002B04D11E23FB18D8
:4026800013221A801CE00C23FB181C22BA1812881A813B1D1B789AB20C23FB189A800C23FB183A6B1A600C23FB18181C002100220FF094FD031E03D01E23FB1801221A8086
:4026C0001E23FB181B88181CBD4608B0B0BDC0466C7B010080B584B000AF021C3960FB1D1A703B685B68181CFFF7ECF9031C1A1C012313409BB2002B03D0C3235B00FB6000
:4027000002E08823FF33FB600B4B1B78DBB201229343DAB2084B1A70084B1B78012B06D1074B1B7802221343DAB2054B1A70FB68181CBD4604B080BD772300206023002011
:402740005823002090B589B000AF78601F23FB1800221A701E23FB1800221A700023BB619C4B1B68002B00D1EBE10C23FB187A6812881A800C23FB1800225A600C23FB188F
:402780001E22BA1812789A707B6899891E23FB181A789148131C9B009B18DB00C3185B88994229D10C23FB180022DA707B681B89012B00D095E17B685B681B78002B02D0E7
:4027C000012B0CD017E0C4235B00BB61834B1B78DBB201229343DAB2804B1A700BE08A23FF33BB617D4B1B78DBB201229343DAB27A4B1A70C04674E17B6899891E23FB185E
:402800001A787548131C9B009B18DB00C31820339B88994229D10C23FB180222DA707B681B89012B00D05CE17B685B681B78002B02D0012B0CD017E0C5235B00BB61674B15
:402840001B78DBB201229343DAB2644B1A700BE08C23FF33BB61614B1B78DBB201229343DAB25E4B1A70C0463BE17B6899891E23FB181A785848131C9B009B18DB00C3182E
:4028800008339B88994214D10C23FB180422DA707B681A1D0C23FB185A60C6235B00BB614E4B1B78DBB201229343DAB24B4B1A7017E17B6899891E23FB181A784648131CD4
:4028C0009B009B18DB00C3180833DB8899420ED10C23FB180422DA701E23FB181A787B68101C191CFFF7F6FE031CBB61F9E07B6899891E23FB181A783748131C9B009B18BB
:40290000DB00C3180E339B88994214D10C23FB180522DA707B681A1D0C23FB185A60C6235B00BB612D4B1B78DBB201229343DAB22A4B1A70D5E07B6899891E23FB181A78D8
:402940002548131C9B009B18DB00C31814339B88994214D10C23FB180622DA707B681A1D0C23FB185A60C6235B00BB611B4B1B78DBB201229343DAB2184B1A70B1E07B68F7
:4029800099891E23FB181A781348131C9B009B18DB00C3181433DB8899420ED10C23FB180622DA701E23FB181A787B68101C191CFFF790FE031CBB6193E01723FB1800229E
:4029C0001A701C23FB1807221A701D23FB1800221A7071E0181200206C7B0100772300207B6899891E23FB181A785948131C9B009B18DB00C318083318681D23FB181A78AD
:402A0000131C5B009B185B00C3181B88994219D10C23FB181C22BA181278DA707B681A1D0C23FB185A60C6235B00BB61494B1B78DBB201229343DAB2464B1A701723FB187E
:402A400001221A707B6899891E23FB181A784048131C9B009B18DB00C318083318681D23FB181A78131C5B009B185B00C3185B88994213D10C23FB181C22BA181278DA7028
:402A80001E23FB181A787B68101C191CFFF722FE031CBB611723FB1801221A701C23FB181A781C23FB1801321A701D23FB181A781D23FB1801321A701E23FB181A78244966
:402AC000131C9B009B18DB00CB181B791D22BA1812789A4205D21723FB181B78002B00D17EE71E23FB181A781E23FB1801321A70184B1B78DBB21A1C012313401BD17B6882
:402B00001A1D7B681F217C18101C00211A1C40230FF09AFB031C23701F23FB181B78002B08D10D4B1B68B9690C22BA18081C111C984706E005E01E23FB181B78002B00D1B4
:402B40001CE61F23FB181B78181CBD4609B090BD6C7B0100772300201812002090B58BB000AF3C1D20800C1C101C191CFB1C221C1A70BB1C021C1A707B1C0A1C1A702623A3
:402B8000FB1800221A80FB1C1B78002B03D1BB1C1B78082B04D92623FB1801221A80BAE0BB1C1B78042B0CD1FB1C1A78131C9B009B18DB0008331A1C5A4BD31804333B6224
:402BC00043E0BB1C1B78062B0CD1FB1C1A78131C9B009B18DB0014331A1C524BD31804333B6232E0BB1C1B78062B2AD9BB1C1B78082B26D8BB1C1B78D91FFB1C1A78494879
:402C0000131C9B009B18DB00C3181B79994213DAFB1C1A784349131C9B009B18DB00CB1808331968BB1C1A78131C5B009B185B002A3BCB183B6208E02623FB1801221A80F2
:402C400003E02623FB1801221A802623FB181B88002B60D13B6A1B88002B04D12623FB1813221A8057E03B6A5B885A1E2E49131C9B009B189B00CB1808339B685B68181CAC
:402C8000FEF720FF031C1A1C012313409BB2002B24D0264B1B78022B1AD13B6A1A881423FB181A811423FB18BA6B1A607B1C1B789AB21423FB189A802623FC183B1D1422D2
:402CC000BA181868111C0EF0E7FC031C238022E02623FB180422FF321A801CE03B6A1A880823FB181A817B1C1B789AB20823FB189A800823FB18BA6B1A600823FB18181C2A
:402D00000021002200230FF09FFA031E03D02623FB1801221A802623FB181B88181CBD460BB090BD6C7B0100787701006E23002080B582B000AFBB1D01221A70FB1D0022EC
:402D40001A70FB1D1A781549131C9B009B18DB00CB185B88002B15D0FB1D1A780F49131C9B009B18DB00CB185B885A1E0C49131C9B009B189B00CB1808339B685B68BA1DD3
:402D800012781A70FB1DFA1D127801321A70FB1D1B78002BD5D0BD4602B080BD6C7B01007877010080B500AFBD4680BD80B582B000AF7860024B7A681A60BD4602B080BD97
:402DC0001C12002090B587B000AF041C081C111C3B60FB1D221C1A70BB1D021C1A707B1D0A1C1A701623FB1800221A80FB1D1B78012B03D1BB1D1B78002B04D01623FB183D
:402E000001221A8022E03223002B04D11623FB1813221A801AE032220823FB181A817B1D1B789AB20823FB189A800823FB183A681A600823FB18181C002100220FF0CEF998
:402E4000031E03D01623FB1801221A801623FB181B88181CBD4607B090BDC04690B587B000AF78601723FB1800221A703D4B1B68002B00D16FE07B689B893222934204D0CF
:402E80007B689B892F22934265D10823FB187A6812881A807B681A1D7B6817217C18101C00211A1C40230FF0CFF9031C23701723FB181B78002B46D17B689B8932229342E1
:402EC0002FD10823FB1801229A700823FB1800225A607B685B68181CFEF7F4FD031C1A1C012313409BB2002B03D0F4235B003B6102E0EA23FF333B611A4B1B6839690822F7
:402F0000BA18081C111C9847174B1B78012B07D1164B1B7802221343DAB2144B1A7012E011E00823FB1800229A707B681A1D0823FB185A600B4B1B68F52251000822BA1817
:402F4000081C111C98470A4B1B78DBB201229343DAB2074B1A701723FB181B78181CBD4607B090BD1C12002060230020582300207723002080B500AFBD4680BD80B582B05F
:402F800000AF786000F048F87B68181C00F008F8032000F011F800F035F8BD4602B080BD80B582B000AF7860024B7A681A66BD4602B080BD0000002090B585B000AF021C32
:402FC000FB1D1A700623FB600B23FC1800F019FE031C23700A4B0A4A1268C0218A43111CFA1D1078FA689040021C0A431A600B23FB181B78181C00F008FEBD4605B090BDF9
:4030000008E400E080B500AF024B802252001A60BD4680BD00E100E080B500AF024B802252001A60BD4680BD80E100E080B584B000AF021CFB1D1A700E4B1B68DAB20F2392
:40304000FB1802218A431A70FB1D1B78DB18DBB202221340D9B20F23FB180F22BA1812780A431A70034B0F22BA1812781A60BD4604B080BD0005044080B584B000AF021C25
:40308000FB1D1A700E4B1B68DAB20F23FB1802218A431A70FB1D1B78DB18DBB202221340D9B20F23FB180F22BA1812780A431A70034B0F22BA1812781A60BD4604B080BD28
:4030C0000004044080B584B000AF021CFB1D1A700E4B1B68DAB20F23FB1840218A431A70FB1D1B789B01DBB240221340D9B20F23FB180F22BA1812780A431A70034B0F220F
:40310000BA1812781A60BD4604B080BD0001044080B500AF044B1B68202213405B09DBB2181CBD4680BDC0460401044080B582B000AF094B1B68DAB2FB1D20210A401A70DB
:40314000054BFA1D12781A60FB1D1B785B09DBB2181CBD4602B080BD1001044080B500AF00F050F8054B181C00F00EF8032000F017F800F03DF8BD4680BDC04681310000F8
:4031800080B500AFBD4680BD80B582B000AF7860024B7A685A64BD4602B080BD0000002090B585B000AF021CFB1D1A700E23FB600B23FC1800F025FD031C23700A4B0A4ADA
:4031C00012680A491140FA1D1078FA689040021C0A431A600B23FB181B78181C00F015FDBD4605B090BDC04600E400E0FF3FFFFF80B500AF024B02221A60BD4680BDC046D1
:4032000000E100E080B500AF024B02221A60BD4680BDC04680E100E080B500AF024B02221A60BD4680BDC04680E200E080B500AF00F070F8BD4680BD80B500AF064B064A1F
:403240001268802109060A431A6000F02DF800F02FF8BD4680BDC0460000254080B500AF064B1B78002B04D1FFF7E0FF034B01221A70FFF7E1FFBD4680BDC0462012002080
:4032800080B500AF00F01AF8054B054A1268520052081A60034B00221A60BD4680BDC04600002540880F254080B500AFBD4680BD80B500AF00F08EF8BD4680BD80B500AFB6
:4032C00000F0A2F8BD4680BD80B582B000AF7860C046064B1B681F221340082BF9D0044B7A681A60BD4602B080BDC046080225404002254080B582B000AF054B1B681F22C9
:4033000013407B607B68181CBD4602B080BDC0460802254080B500AF1B4B1C4A1A601C4B00221A601B4B01221A601B4B1B4A1A601B4B07221A601B4B00221A601A4B0122D9
:403340001A601A4B154A1A60194B00221A60194B04221A60184B00221A60184B00221A60174B00221A60174B00221A60164B00221A60164B00221A60144B1B689AB2144B10
:403380001A80BD4680BDC046000025400F00000240002540480025400003254007000080040325401003254044002540000225400402254050002540880E2540C80E25402C
:4033C000480F2540080F2540C80F2540880F25402212002080B500AF074B074A126807490A40902109040A431A60054B054A12881A60BD4680BDC04600030240FFFF0FFF9F
:40340000880F25402212002080B500AF084B084A126808490A401A60074B1B689AB2E423DB0013409AB2054B1A80BD4680BDC04600030240FFFF0FFF880F254022120020B1
:4034400090B585B000AF78600F23FC1800F0D9FB031C2370094B7A6807210A40D104074A1268074802400A431A600F23FB181B78181C00F0CAFBBD4605B090BD00010B40DD
:40348000FFFFC7FF90B58BB000AF78602723FC1800F0B7FB031C2370184B1A680C23FB181A60174B1A680C23FB185A607B68033B144AD35C1A1C0C23FB189A60124B1A680F
:4034C0000C23FB18DA601C23FB18104A1A600C23FA181C23FB185A600D4B1C22BA181A600C4B0D4A1A600A4B1B682723FB181B78181C00F08AFBBD460BB090BD08010B4003
:4035000000010B40CC7B010030001040B6EA000008001040040010401700008080B584B000AF78600023FB60154B154A126801210A431A60134B144A1A60144B134A126898
:40354000802109020A431A607B68002B12D01023FB600CE0012000F059F800F019F8031E02D00023FB6005E07B68013B7B607B68002BEFD1FB68181CBD4604B080BDC0465C
:4035800060F02E4078002E400220000010002E4080B582B000AF054B1B68012213407B607B68181CBD4602B080BDC0460C002E4080B582B000AF021CFB1D1A7001BEBD466C
:4035C00002B080BD80B582B000AF786009E00C4B1B68181C00F00CFB7B680A4A944663447B607A6880231B029A42F0D8064B1B687A685343181C00F0FBFABD4602B080BDD0
:40360000200E00200080FFFF180E002080B582B000AF021CBB1D1A80BB1D1B88044A12785343181C00F0E4FABD4602B080BDC0461C0E002080B500AF154B154A12689200F6
:4036400092081A60134B134A1268920092081A60114B114A1268920092081A600F4B0F4A1268920092081A600D4B0D4A1268920092081A600B4B0B4A1268920092081A6017
:40368000094B094A1268920092081A60BD4680BD0800044008010440080204400803044008040440080504400806044090B583B000AFFC1D00F0A5FA031C2370074B074AB6
:4036C000126804218A431A6030BFFB1D1B78181C00F09BFABD4603B090BDC04610ED00E090B583B000AFFC1D00F08BFA031C2370114B114A1268520052081A600F4B104A39
:40370000128892B21A600F4B0E4A126804210A431A600D4B1B683B600220FFF791FE30BF094B3A681A60FB1D1B78181C00F06DFABD4603B090BDC04600000B400C000B40BC
:4037400052F1FF0F10ED00E000010B4090B583B000AFFC1D00F055FA031C2370FFF76AFF114B114A1268802109060A431A600F4B0F4A128892B21A600E4B0E4A126804213C
:403780000A431A600C4B0C4A1268FF218A43F1210A431A6030BFFB1D1B78181C00F035FABD4603B090BDC04600000B400C000B4050F1FF0F10ED00E02C000B4080B500AF36
:4037C0000E4B0E4A126801218A431A600B4B0B4A126802218A431A60094B094A126830218A4310210A431A60054B054A126807218A4301210A431A60BD4680BD00F02E40DA
:4038000000FF2E4080B500AF0E4B0E4A126802218A431A600C4B0C4A126807218A4302210A431A60084B084A126830218A4320210A431A60034B034A126801210A431A6059
:40384000BD4680BD00F02E4000FF2E4080B500AFFFF7B4FF044B044A1268802109060A431A60BD4680BDC04600F02E4080B584B000AF78600C4B1B6801221340FB607B6800
:40388000002B02D0012B03D005E0FFF797FF06E0FFF7B8FF03E00020FFF78AFEC046FB68181CBD4604B080BD00F02E4090B583B000AFFC1D00F0A5F9031C2370074B074A75
:4038C0001268C02109020A431A60FB1D1B78181C00F09BF9BD4603B090BDC04600010B4080B500AF054B1A68C0231B02134001D0012300E00023181CBD4680BD00010B4022
:4039000090B583B000AFFC1D00F07BF9031C23700C4B0C4A12680C490A408021C9010A431A60084B074A126807490A40802109020A431A60FB1D1B78181C00F066F9BD46DD
:4039400003B090BD00010B40FF3FFFFF80B582B000AF78607B68022B02D90020FFF728FE054B1B687A68D2000132D34001221340181CBD4602B080BD10020B4080B584B07B
:4039800000AF786039607B68022B02D90020FFF70FFE7B68181CFFF7D9FF031E15D10C4B1B687A68D200111C03228A40D2431340FB603B68032213407A68D2009340FA687C
:4039C0001343FB60024BFA681A60BD4604B080BD0C020B4080B584B000AF786039607B68002B02D07B68012B01D1012300E00023002B02D10020FFF7DBFD7B68181CFFF736
:403A0000A5FF031E16D10D4B1B687A68D2000232111C01228A40D2431340FB607B68DB0002331A1C3B689340FA681343FB60034BFA681A60BD4604B080BDC0460C020B400B
:403A400080B582B000AF7860144B144A11687A680A431A607B680122134005D0C0460020FFF774FF031EFAD07A6880235B00134005D0C0460120FFF769FF031EFAD07A6877
:403A800080235B02134005D0C0460220FFF75EFF031EFAD0BD4602B080BDC04610020B4080B584B000AF786039607B68002B02D07B68012B01D1012300E00023002B02D1B4
:403AC0000020FFF775FD174B1B689B0F9B0701D1C92300E05D23181CFFF798FD124B1B68FB607B681B011A1C104B9340DA43FB681340FB600C4B7A681201111C3A688A407F
:403B0000111CFA680A431A60064B1B689B0F9B0701D1432300E01F23181CFFF777FDBD4604B080BD0C020B4008020B40FFFF000080B500AF034B1B68034A1340181CBD46EB
:403B400080BDC04610020B400404040090B585B000AF78600B23FC1800F053F8031C2370FFF7BEFE031E04D00123FB60FFF7C8FE01E00023FB607B680D4A13407B600D4B68
:403B80000C4A12680C4911407A680A431A60094B1B68FB68012B01D1FFF788FE0B23FB181B78181C00F031F8BD4605B090BDC0460404040010020B40FBFBFBFF80B582B046
:403BC00000AF7860084B084A11687A68074802400A431A60C046044B1B68044A1340FAD1BD4602B080BDC04610020B40080808000230800803D00138FDD1C046C046C0468F
:403C00007047EFF3108072B6704780F31088704780B5ACB000AFF860B960BB1D1A800023A422BA1813600023A022BA181360BB689422BA181360BB1D1A889423FB181B685A
:403C4000D318594A934200D994E09423FB181B68DB09AC22BA181360AC23FB181B68DB019C22BA18136077E000239822BA1813600023A822BA18136050E09C23FB181A68DD
:403C80009423FB181B689A422DD3BB1D1A88A423FB181B689A4226D9FA68A423FB181B68D31819781423FA18A823FB181B68D3180A1C1A709C23FB181B681B78DAB2F968D4
:403CC000A423FB181B68CB181B789A4203D001239822BA181360A423FB181B680133A422BA1813600CE09C23FB181B681B78D9B21423FA18A823FB181B68D3180A1C1A70DF
:403D00009C23FB181B6801339C22BA181360A823FB181B680133A822BA181360A823FB181B687F2BA9D99823FB181B68002B0CD0AC23FB181A681423FB18101C191C00F06F
:403D40002BFA031CA022BA181360AC23FB181B680133AC22BA181360BB1D1A88A423FB181B689A420AD9A023FB181B68002B00D17AE703E00123A022BA181360A023FB181C
:403D80001B68002B09D0A023FB181B68012B04D001235B42A022BA181360A023FB181B68181CBD462CB080BDFFFF010080B582B000AF78600A1CBB1C1A80BB1C1A887B68D2
:403DC0001A60BD4602B080BD80B582B000AF78600A1CBB1C1A80BB1C1A887B681A60BD4602B080BD80B584B000AF494B1B78DBB21B02484A1278D2B21343FB60464B1B78AC
:403E0000DBB21B02454A1278D2B21343BB60BB68434A934207D1FB68072B04D1414BBB600423FB6009E0BA68D4231B019A4204D1FB68042B01D13B4BBB603B4BBA681A60E4
:403E40003A4BFA681A603A4B1B78DBB21B02394A1278D2B21343FB60FA6880239B019A4202D0FB68002B01D1334BFB60334BFA681A60334B1B78DBB21B02324A1278D2B2B6
:403E80001343FB60FB68304A934206D0FB682F4A934202D0FB68052B01D12D4BFB602D4BFA681A602C4B1B681B097B602B4B1B68AA2B29D17B68012B26D9214B1B78DBB25F
:403EC0000E2B21D1264B1B78DBB29BB21B0299B2244B1B78DBB29AB2BB1C0A431A80224BBA1C12881A60214B1B78DBB29BB21B0299B21F4B1B78DBB29AB23B1C0A431A800C
:403F00001C4B3A1C12881A60BD4604B080BDC046D9F0FF0FD8F0FF0FDFF0FF0FDEF0FF0F580B0000580D00006C002E4074002E40DBF0FF0FDAF0FF0F0220000078002E4013
:403F4000DDF0FF0FDCF0FF0F0F0F000005050000050F000080002E40EC0F00F0E00F00F06DF2FF0F6CF2FF0F84002E406FF2FF0F6EF2FF0F94002E4080B582B000AF021CBA
:403F8000BB1D1A80BB1D1B88181CFFF73FFBBD4602B080BD80B582B000AF78607B68181CFFF710FBBD4602B080BDC04680B500AF00F0DEF8BD4680BD80B500AF00F0E2F828
:403FC000BD4680BD80B500AF00F0DCF8044B181C00F09CF8032000F0A5F8BD4680BDC0469944000080B500AF024B181C00F07CF8BD4680BD9944000080B500AF0223FF33DE
:40400000181CBD4680BDC04680B582B000AF78602B23181CBD4602B080BDC04680B582B000AF78602B23181CBD4602B080BDC04680B582B000AF78602B23181CBD4602B011
:4040400080BDC04680B582B000AF78602B23181CBD4602B080BDC04680B582B000AF78602B23181CBD4602B080BDC04680B582B000AF78602B23181CBD4602B080BDC046C5
:4040800080B582B000AF78602B23181CBD4602B080BDC04680B582B000AF78602B23181CBD4602B080BDC04680B500AF2B23181CBD4680BD80B582B000AF021CFB1D1A70B4
:4040C0002B23181CBD4602B080BDC04680B582B000AF786039602B23181CBD4602B080BD80B500AFBD4680BD80B582B000AF786000F048F87B68181C00F008F8032000F0EF
:4041000011F800F035F8BD4602B080BD80B582B000AF7860024B7A681A67BD4602B080BD0000002090B585B000AF021CFB1D1A700623FB600B23FC18FFF763FD031C237000
:404140000A4B0A4A1268C0218A43111CFA1D1078FA689040021C0A431A600B23FB181B78181CFFF752FDBD4605B090BD0CE400E080B500AF024B802252011A60BD4680BD89
:4041800000E100E080B500AF024B802252011A60BD4680BD80E100E090B5A9B000AF7860396000239822BA18136000239422BA1813607B68594A934200D9A4E03B68002B99
:4041C00000D1A0E00C23FB1808331A1C3B68101C191C802200F023FB7B68514A934201D9504A00E0504A0C23FB181A600C23FB187F225A604D4B0C22BA181A604C4B4D4A2D
:404200001A60C046494B1B681B0F1A07F0231B069A4204D1454B1B68FF2213400BE0434B1B681B0F1A07A0231B069A4202D03F4B1B6800E000239822BA1813609823FB187A
:404240001B68002B5ED19F23FC18FFF7DAFC031C237000F075F8031C9422BA1813609423FB181B68002B05D100F0A6F8031C9822BA1813609823FB181B68002B30D10C23F0
:40428000FB182D4A1A600C23FB181A687B681B041A430C23FB181A60244B0C22BA181A60234B264A1A60C046204B1B681B0F1A07F0231B069A4204D11C4B1B68FF22134058
:4042C0000BE01A4B1B681B0F1A07A0231B069A4202D0164B1B6800E000239822BA1813609423FB181B68002B05D100F099F8031C9422BA1813609F23FB181B78181CFFF7AD
:4043000084FC04E003E004239822BA1813609823FB181B68181CBD4629B090BDFF030000FF010000B6D70001B6D70000080010400400104004000080B6D800000500008002
:4043400080B584B000AF0023FB603B1D154A1A60154A3B1D5A60154B3A1D1A60144B154A1A60C046114B1B681B0F1A07F0231B069A4204D10D4B1B68FF2213400BE00B4BF7
:404380001B681B0F1A07A0231B069A4202D0074B1B6800E00023FB60FB68181CBD4604B080BDC046B6E900003C23002008001040040010401600008080B582B000AF002340
:4043C0007B60134B134A1A60134B144A1A60C0460F4B1B681B0F1A07F0231B069A4204D10B4B1B68FF2213400BE0094B1B681B0F1A07A0231B069A4202D0054B1B6800E0C5
:4044000000237B607B68181CBD4602B080BDC04608001040B6E80000040010401500008080B584B000AF0023FB603B1D154A1A60154A3B1D5A60154B3A1D1A60144B154A69
:404440001A60C046114B1B681B0F1A07F0231B069A4204D10D4B1B68FF2213400BE00B4B1B681B0F1A07A0231B069A4202D0074B1B6800E00023FB60FB68181CBD4604B03C
:4044800080BDC046B6EA00003C23002008001040040010401700008080B500AF12F06EFDBD4680BD002243088B4274D303098B425FD3030A8B4244D3030B8B4228D3030C64
:4044C0008B420DD3FF22090212BA030C8B4202D31212090265D0030B8B4219D300E0090AC30B8B4201D3CB03C01A5241830B8B4201D38B03C01A5241430B8B4201D34B0337
:40450000C01A5241030B8B4201D30B03C01A5241C30A8B4201D3CB02C01A5241830A8B4201D38B02C01A5241430A8B4201D34B02C01A5241030A8B4201D30B02C01A524144
:40454000CDD2C3098B4201D3CB01C01A524183098B4201D38B01C01A524143098B4201D34B01C01A524103098B4201D30B01C01A5241C3088B4201D3CB00C01A52418308D5
:404580008B4201D38B00C01A524143088B4201D34B00C01A5241411A00D20146524110467047FFE701B5002000F0FCF802BDC0460029F7D003B5FFF775FF0EBC4243891A41
:4045C0001847C04603460B437FD4002243088B4274D303098B425FD3030A8B4244D3030B8B4228D3030C8B420DD3FF22090212BA030C8B4202D31212090265D0030B8B4275
:4046000019D300E0090AC30B8B4201D3CB03C01A5241830B8B4201D38B03C01A5241430B8B4201D34B03C01A5241030B8B4201D30B03C01A5241C30A8B4201D3CB02C01ADE
:404640005241830A8B4201D38B02C01A5241430A8B4201D34B02C01A5241030A8B4201D30B02C01A5241CDD2C3098B4201D3CB01C01A524183098B4201D38B01C01A524144
:4046800043098B4201D34B01C01A524103098B4201D30B01C01A5241C3088B4201D3CB00C01A524183088B4201D38B00C01A524143088B4201D34B00C01A5241411A00D295
:4046C00001465241104670475DE0CA0F00D04942031000D34042534000229C4603098B422DD3030A8B4212D3FC22890112BA030A8B420CD3890192118B4208D3890192119C
:404700008B4204D389013AD0921100E08909C3098B4201D3CB01C01A524183098B4201D38B01C01A524143098B4201D34B01C01A524103098B4201D30B01C01A5241C308C9
:404740008B4201D3CB00C01A524183088B4201D38B00C01A5241D9D243088B4201D34B00C01A5241411A00D20146634652415B10104601D34042002B00D54942704763463B
:404780005B1000D3404201B5002000F00BF802BD0029F8D003B5FFF715FF0EBC4243891A1847C0467047C046014B18687047C046A01100200E4B70B500251E1C0D4CE41A5C
:4047C000A410A54204D0AB00F35898470135F8E713F062FA084B00251E1C084CE41AA410A54204D0AB00F35898470135F8E770BDA47C0100A47C0100A47C0100AC7C0100EB
:4048000030B50024944208D0035D651C0C5DA34201D0181B02E02C1CF4E7002030BD002310B5934203D0CC5CC4540133F9E710BD031C8218934202D019700133FAE7704716
:404840000FB40B4B13B51C68002C05D0A369002B02D1201C00F03EFA05AB201CA168049A019300F0E7FB16BC08BC04B01847C046A011002070B5051C0E1C002804D0836993
:40488000002B01D100F026FAAC68A3891B0702D52369002B19D1281C211C00F0AFF8002813D00120404245E03178002B1BDAA269934211DA221C281C00F048F8013042422B
:4048C0004241D0B20028ECD10136A3683278013BA360002AE8D10CE023681970236819780A2903D1E6E723681970236801332360EAE7002B17DAA269934208DB0A23226813
:404900001370236819780A2911D1281C01E0281C0A21221C00F01AF8013042424241D0B2002806D0BDE70A23226813702368013323600A2070BD000008B5034B011C186818
:40494000FFF798FF08BDC046A011002070B5051C0E1C141C002804D08369002B01D100F0B9F9234B9C4201D16C6808E0214B9C4201D1AC6803E0204B9C4200D1EC68A36980
:40498000A360A3891B070AD52369002B07D023682269F6B2981A636998420FDB08E0281C211C00F02BF80028F1D0012040421DE0281C211C00F020F90028F6D1A36801307F
:4049C000013BA36023685A1C22601E706369984205D0A389301CDB0708D50A2E06D1281C211C00F009F90028DFD1301C70BDC046047C0100247C0100447C0100354B70B554
:404A00001D68061C0C1C002D05D0AB69002B02D1281C00F05FF9304B9C4201D16C6808E02E4B9C4201D1AC6803E02D4B9C4200D1EC68A3899AB2110723D4D10607D4092221
:404A40000120326037321343A381404240E0530713D5616B002908D0231C4433994202D0301C00F021FA002363632422A3899343A38100236360236923600822A38913433F
:404A8000A3812369002B0BD1A023A2899B00134080229200934203D0301C211C00F0ACF90123A289134005D00023A36063695B42A36103E0910700D46369A3600020236995
:404AC000834205D1130603D540231A43A281013870BDC046A0110020047C0100247C0100447C0100F7B58A89051C0C1C13075ED44B68002B02DC0B6C002B1ADDE76A002FFE
:404B000017D000232E682B6080235B011A4001D0626D15E0281C216A0123B847021C431C0ED12B68002B0BD01D2B01D0162B02D12E6000205EE04021A3890B43A38159E024
:404B4000A3895B0706D56368D21A636B002B01D0236CD21A0023281C216AE76AB847A389421C06D12A68002A03D01D2A01D0162A19D10022626022692260DB0405D5431C53
:404B800002D12B68002B00D16065616B2E600029CFD0231C4433994202D0281C00F084F90020606326E040221343A38122E00F69002FBED00B680F60DB1B01930023920774
:404BC00000D14B69A360019B002BB2DD281C216A3A1C019BA66AB047002806DC40220120A38940421343A38104E0019B3F181B1A0193E8E7FEBD000038B50B69051C0C1C86
:404C0000002B01D100201CE0002804D08369002B01D100F05FF80B4B9C4201D16C6808E0094B9C4201D1AC6803E0084B9C4200D1EC680C22A35E002BE4D0281C211CFFF797
:404C400051FF38BD047C0100247C0100447C010008B5024900F0AEF808BDC046F94B0000002310B5041C03604360836081814366C281036143618361191C08225C30FFF7B3
:404C8000D7FD054B24626362044BA362044BE362044B236310BDC04685550000AD550000E55500001156000070B568254B1E5D430E1C291C743100F03DF9041E08D0002168
:404CC0002A1C016046600C30A0606832FFF7B0FD201C70BD836913B5002B28D18364C3640365134B134A1B6882620193984201D101238361041C00F01FF86060201C00F0BA
:404D00001BF8A060201C00F017F80421E06000226068FFF7A5FFA06809210122FFF7A0FFE06812210222FFF79BFF0123A36113BD007C0100514C0000F8B51D4B061C1D6855
:404D4000AB69002B02D1281CFFF7C4FF4835AC686B68013B05D40C22A75E002F10D06834F7E72B68002B06D1301C0421FFF79CFF2860002801D02D68E9E70C23336016E0BA
:404D80000123201C5B42E3810233A38167662760A760676027616761A7615C30391C0822FFF746FD201C6763A763A764E764F8BD007C0100F7B5041C071C002601914834C0
:404DC000002C16D06368A5680093009B013B00930DD4AB89012B08D90E22AB5E013304D0381C291C019B984706436835EDE72468E6E7301CFEBD0000F0B58B8991B09B079F
:404E000006D50B1C47330B600B6101234B6145E00C1C0E23C95E061C002904DA8023A5891D4010D10CE001AA00F01EFC0028F5DBF023029D1B021D40194BED186B425D41F9
:404E40008027FF0001E000254027301C391C00F071F800280CD1A3899A051FD402221343A381231C4733236023610123636115E080220C4BB362A38920601343A381206172
:404E80006761002D0AD00E23E15E301C00F0FEFB002803D00122A3891343A38111B0F0BD00E0FFFF514C000030B500293ED004390B68002B00DAC9181D4A1368141C002BE2
:404EC00002D14B60116031E099420DD208680A189A4203D11368C3180B6053684B60216024E08A4203D8131C5A68002AF9D11D685C198C420BD1096869185818196090422D
:404F000014D110685268091819605A600EE08C4202D90C23036009E008680C18944203D114685268001908604A60596030BDC04650230020032370B5CC1C9C430834051CA7
:404F40000C2C01D20C2405E0002C03DA0C2300202B6042E08C42F9D3204A1368101C191C002913D00A68121B0DD40B2A02D90A608B181FE08B4202D15A6802601BE04A6813
:404F80005A600B1C17E00B1C4968E9E7144E3368002B03D1281C00F0E3FA3060281C211C00F0DEFA031C421CD0D00322C61C964386420AD11C60181C07210B301A1D8843D6
:404FC000821A0AD05142995007E0311A281C00F0C7FA431CBAD0331CECE770BD502300204C230020936810B5013B9360002B05DA9469A34208DBCBB20A2B05D01368581C0A
:4050000010601970C8B201E0FFF7A0FC10BDF8B5061C0F1C141CD518AC4208D02178301C3A1CFFF7DFFF0134431CF5D100E00020F8BD0000F0B59FB0061C0F1C0292059355
:40504000002804D08369002B01D1FFF743FE794B9F4201D1776808E0774B9F4201D1B76803E0764B9F4200D1F768BB891B070AD53B69002B07D0002306AD6B6120336B76CC
:405080001033AB763DE0301C391CFFF7B7FC0028F1D001204042CAE0059A111D12680591002A7EDB0992013423782E2B00D189E021786348032200F00FFB002808D0604B83
:4050C0000134C01A40238340181C2B68184328602178631C5B4806220293297600F0FCFA002800D191E0584B002B00D084E00722059B07339343083305936B69039A9B1898
:405100006B61029C2378002B04D1029BE31A049311D003E0252BF8D00134F3E7049B301C391C029AFFF773FF431C7BD06A69049B944663446B612378002B73D00122002352
:4051400052426A6002A95432521801342B60EB60AB601370AB6521783C48052200F0BCFA002809D0394B0134C01A01238340181C2B6818432860EEE72B68DA0604D55322E8
:40518000202102A8121811701A0704D553222B2102A81218117022782A2A00D17CE7099B05E05242EA60022213432B607BE72278303A092A04D80A214B4301349B18F6E7C8
:4051C000099371E763782A2B09D1059B02341A1D1B680592002B0DDA01235B420AE0002301342278303A092A04D80A214B4301349B18F6E707935BE705AB0093301C291C34
:405200003A1C134B00E000BF07E005AB0093301C291C3A1C0E4B00F08BF80390039B013300D06AE7BB895B0600D532E70B981FB0F0BDC046047C0100247C0100447C01001D
:405240006A7C01006E7C010000000000647C01000F500000F7B5171C01930A698B6800900C1C934200DA131C221C3B6043321278002A01D001333B6023689B0602D53B6865
:4052800002333B60062523681D401ED0231C43331B785A1E9341226892061CD53020E1184031C870211C5A1C45310978A21840320233D1700FE0221C01230098019919326A
:4052C000089EB047431C0ED00135E3683A689B1A9D42F0DBDAE7221C009801994332089DA847431C02D10120404220E006232068E1683A6803400025042B03D18D1AEB4367
:40530000DB171D40A3682269934201DD9B1AED180027AF420ADA221C0123009801991A32089EB047431CDED00137F2E70020FEBDF0B58BB006920A1C4332079305900492D1
:405340000A7E0C1C109B6E2A00D1A8E011D8632A22D009D8002A00D1B2E0582A00D0C2E045310A707C4A4FE0642A1DD0692A1BD0B9E0732A00D1A7E009D86F2A29D0702A9E
:4053800000D0B0E0202209680A43226037E0752A1FD0782A33D0A6E00E1C1A684236111D196013683370A1E021681A68080606D4490604D5111D19600023D55E02E0111DA9
:4053C00019601568002D3BDA2D23049A6D42137036E021681A68080606D4490604D51568111D1960ADB202E0111D196015685A4B227E03930A276F2A1DD108271BE0221CA0
:40540000782145321170554A19680392081D226818600D68100602D4500600D5ADB2D30702D520231A4322601027002D03D1202322689A432260231C002243331A7002E09A
:405440000A27454B03936368A360002B03DB0422216891432160002D02D1049E002B0ED0049E281C391CFFF7A3F8039B013E5B5C281C3370391CFFF715F8051EF1D1082F94
:4054800009D12368DB0706D563682269934202DC3023013E3370049B9B1B23612BE009681A68080607D4490605D5111D19601368A28A1A8004E0111D1960136862691A6070
:4054C0000023049E236116E01A68111D196016680021301C626800F0FFF8002801D0801B6060636803E0261C42363270012323610023049A1370079B05980093211C069BAE
:4055000009AAFFF7A7FE431C02D10120404221E0236905980699321C079DA847431CF4D023689B0705D4099BE068984212DA181C10E00025E368099A9B1A9D42F3DA221CED
:405540000123059806991932079EB047431CDCD00135EFE70BB0F0BD757C0100867C010038B50023064C051C081C2360FBF78EFD431C03D12368002B00D02B6038BDC0468A
:405580007823002038B50C1C0E25495F00F0B0F8002803DB636D1B18636503E0A289024B1340A38138BDC046FFEFFFFFF8B51E1C8B89051C0C1C171CDB0505D50E23C95E95
:4055C0000022022300F074F8A289054B281C1340A3813A1C0E23E15E331C00F01FF8F8BDFFEFFFFF38B50C1C0E25495F00F060F8A389421C03D1054A1340A38104E0802233
:4056000052011343A381606538BDC046FFEFFFFF08B50E23C95E00F015F808BD38B5051C0020074C2060081C111C1A1CFBF740FA431C03D12368002B00D02B6038BDC04627
:405640007823002038B50023064C051C081C236000F062F8431C03D12368002B00D02B6038BDC0467823002038B50023064C051C081C111C236000F057F8431C03D12368AD
:40568000002B00D02B6038BD7823002038B50023064C051C081C236000F04EF8431C03D12368002B00D02B6038BDC0467823002038B5051C0020074C2060081C111C1A1CD2
:4056C00000F042F8431C03D12368002B00D02B6038BDC04678230020C9B28218904204D003788B4202D00130F8E700207047000038B5051C0020074C2060081C111C1A1C42
:4057000000F02AF8431C03D12368002B00D02B6038BDC0467823002058220120014B40421A6070477823002058220120014B40421A607047782300205822024B00201A6052
:405740007047C0467823002058220120014B40421A6070477823002058220120014B40421A60704778230020134A1088810703D08107890F401A001D11791030484381B298
:405780005088820703D08207920F801A001D800040180A494030098980B2CA0701D0503080B2890706D504495422091F09785143081880B2704700002E0E002030120020EF
:4057C00010B501F05BFF10BD10B501F06DFF10BD10B501F071FF10BD10B500F055FA10BD10B50749044609780220002907D1204601F0B2FF002802D120460AF07FFD10BD6A
:40580000C00F002070B504460120002C12D02368002B0FD0616800290CD0074D06222889208118462968FEF7FAFF6968606809780170002070BD000030120020FFB585B0AA
:40584000002768460E9D07734F481C460078002802D0082009B0F0BD10990F9801900095029105A807C800F001F90028F2D16946264603AB84460873002C19D0002115E0A2
:405880008A00B75A082F09D990198078002805D0083FB7521878401C187005E0002914D00027B75290198770491CC9B2A942E7D360460028CED10F98002809D0109901F0DC
:4058C0008DFA002804D00120C4E701208446EFE701F0EAFE2D480021416081600599016021888180022D07D3A1798171A17AC171A1890181218A418100211EE0481C19E007
:4059000082008B00A75AE65ABE46BE4211D26F463E80B4461E190296B678BE7001967646E6521719029EBB78B3706646A652019EBE70401CA842E3D3491CA942DED3134820
:4059400022460C3000906846037B0799069800F015F90028B8D168460B4C007B60700B480C3001F0D1FE0028AED1084907480C3107F08AFC0028A7D107F0A4FC0028A3D167
:405980000121217066E70000280E002024120020F8B5054633480E460078002802D002242046F8BD002E5BD000242F49002D16D02A89D0070DD02868002808D003881B3BE1
:4059C000E12B04D24088FB2801D81B2801D2012409E0900707D56868002804D1F7E70020088108604860002CDAD11F482F8907811C481B21801D0180418004210171194910
:405A00000020891C0870F80705D016480622801D2968FEF704FF1449B80703D56A681148127882700F480D46801D0860001F486001F0B8FE0B48801D01F0A6FE28890DF0BE
:405A4000B3FC28890DF01AFE03461033FFF78CFE1F21C018890140180249308088809FE701249DE7280E002030120020FFB58446384F1C460020BB883F7805460246064661
:405A8000002F11D100290ED0029999420BD36146002908D0002C06D00A99002906D02E4B0B99994202D2012004B0F0BD002144E0AB001F19BF78002F3BD0E35A002B38D0D7
:405AC0007B43591889B22B0000F04AF8050410161C253100A7782388BC46FF27233BEB37BB4222D26346032B1FD322E0A388002B1FD0302B19D31CE02389002B19D0282B75
:405B000013D316E0A289002A13D01346134F233BBB420AD20DE0268A002A0AD033460F4F233BBB4201D2964203D901200EE0002001E000280AD16D1CEDB2099B9D42B7D3BD
:405B40001C2463435B1802998B42ACD89642AAD8AAE70000280E002079020000BAFF000030B47446641E2578641CAB4200D21D46635D5B00E31830BC18470000FFB583B0C4
:405B8000002469460C801F4606468C80002806D00598002803D004983043800701D0012466E0002FFBD03449049809888842F6D3FEF718FAFEF700FA00F00EFC002855D1EC
:405BC00000F076FD002851D12C49084601F03AF905042D0C4AD12A480499066081800021C18007810C98007AC00704D0684601F074FD040007D10C98007A800703D501A889
:405C000001F074FD0446BF1DFEB2002C20D13146059800F05DF804001AD10DF03DFD040016D16A461088928808368518144AF1B29088D288AEB29319984207D3401B801A40
:405C400080B201F0EFFB050007D000E0FF25012400F05AFA002D04D008E0F8B200F01CF9F6E700F07DFA07490120087000F0C6FB204607B0F0BD00002C0E0020BD5D00001A
:405C80003C120020340E002010B503480078012801D101F069FA10BD340E002070B5084B0446DA889E8800205518B54206D81D68AA182260DA885118D98070BD032070BDF8
:405CC0003C12002001480089704700003C120020F0B587B007460D4600208900009006916846FFF7DBFF844600285DD1304800990160002117E02E4B88001A6806291154B4
:405D000006D22C4C0419667882185670628805E0C419203CA67A8218567022891B68C018491C4280C9B2A942E5D300242DE0601CC2B2059025E01E4FA30039689600581873
:405D400040887118039604904E88B04217D938466F46FE80B6464F786E4677710297049F4F800168039F5E18767879184E700168764659184E800068029F18184770521C52
:405D8000D2B2AA42D7D30598C4B2AC42CFD36046002809D168460699FFF780FF8446002802D1054900980860604607B0F0BD0000380E0020D07C01003C0E002070470000CB
:405DC00010B5002809D005494A68002A05D0011F08788000105801F0D3FA10BD380E002010B50446FFF76EFFC0B2801DA0420CD307484068002808D0A100405801F032FAD6
:405E0000002801D00470001D10BD002010BD0000380E0020F8B516460D460446FFF752FFC0B2801DA04203D20020C0430090F8BDB2B2E9B2684601F03BFA0099481C03D0FA
:405E4000024AA000526811500098F8BD380E0020F8B50746FFF736FF801DC6B20A49002005460C680DE06178002907D06188B94202D32078FFF7B4FF002804D1241D6D1C75
:405E8000EDB2B542EFD3F8BD380E002010B5002801D0FFF795FF10BD70B506460948002504680BE06178002905D062882078121D0023FFF7AFFF241D6D1CEDB2B542F1D3A9
:405EC00070BD0000380E0020FFB581B00A9C16002BD000F0EFF80546042826D0214F002C0BD02046FFF7B4FF2901C919486000281BD022460499FEF792FC1A4928010E5070
:405F000046187481019805707D20029CC000444300F0BEF8074604280AD000F053FAA0420ED800F04FFA201A06E0FF2005B0F0BD204600F0ABFA0020F06035720020F5E798
:405F400000F040FA009000F0B7FA00980121001B009000F0EDF803493A0151180098C860E6E7000048120020F8B5060116483418217A042903D0E068002802D017E0002043
:405F8000F8BD00F01FFA054600F096FA00F0A0F804280CD001010C480F18F8680021451900F0C6F80020F860284600F06FFA6068054D002801D0FFF769FF04202072002038
:405FC000A8516081E060DAE748120020FEB500266A46304601232549050169180D7A042D02D0C96800291BD000211154401CC0B20428F0D300246846005D002830D01B4868
:40600000210108184189476805680291002101604160042241810272C160002E02D015E01354E3E700F054F804280ED001010F4808180190C6680021304600F079F80198D0
:406040000021C160304600F021FA0126002D07D038460299A847002F02D03846FFF716FF641CE4B2042CC6D3FEBD0000481200200EB5002005216A46009011815081034895
:40608000694600680EF07DF90EBD0000400E0020074A0020010189180B7A042B02D0C968002903D0401CC0B20428F3D370470000481200200549002002015218127A042ACF
:4060C00003D0401CC0B20428F6D370474812002030B50A4B04200A4C00210A011219157A042D06D0D268002A03D09A4201D808461346491CC9B20429EFD330BDFFFF0000EB
:40610000481200207047000030B50020074C05460423020111190B72A5504D60401C4D81C0B2CD600428F4D330BD00004812002030B5094C00231A011219157A042D04D0BE
:40614000D568002906D02D18D5605B1CDBB2042BF1D330BD2D1AF7E748120020002070471CB5002469460C70142001902346054A05480EF00BF904480068401C00D1FF241F
:4061800020461CBDDD610000400E00203EB5124A0146FF2000230124126800290DD0012914D0042908D104206946009308814B8110460EF0E6F880B23EBD68460093048183
:4061C0004381694610460EF0D7F8F4E768460093048143816946EBE7400E002070B545890468416800890300FFF7BAFC08280509091E22282628002005F018FF1EE0022923
:4062000008D0C8B22A4621460CF07EFA2046FFF73DFE13E002202A4621460CF075FA2946204600F00DF809E000200DF099FD05E02046FFF7CBFE01E0FDF752FF002070BDF0
:40624000014B0022DB681847440E002070B5448905680089022803D0032809D0FF2070BD2246094C0023A46829460120A04708E0FFF7AAFA241DA2B200232946022006F043
:40628000CCFE002070BD0000440E002070470000024800214160018041807047440E002070B50C46002186B016460391012802D0022859D116E003A9012006F0F6FE012844
:4062C0001BD1039D324621462846FEF7A8FA0095287801900220694608814E816846FFF7B5FF41E0214D002B686809D0049004A9022006F0DAFE01281DD0022006B070BD38
:40630000002812D0298840182146FEF788FA28880024801980B228806988091D884206D12C801348FFF792FF03E00320E6E788421AD96C6018E004986860E278A37811029F
:4063400019430B4A698000231060E3565360032313815181A1788170E178C1706178417021780170042028800020C7E7440E0020881200203EB515460C46022803D00428C1
:406380000CD000203EBD0091019002206946088107484A8100680DF0F4FF07E00CF0B4F9044B0022DB6829462046984701203EBD400E0020440E0020014AD16090607047E1
:4063C000440E0020034801688068081A0A214843000970479412002010B5FDF7F3FD482204490548FEF71BFA03490120C870002010BD0000EC7C01009816002010B5FDF7F8
:40640000D5FD10BD70B5134C2368002B08D0207B1149C20705D04008400020738868A08070BD88680B4AA18880B29268814203D90A4D691A091802E0814202D2411A51184F
:40644000A160A080A0689842EAD30DF0B7FF00F013F870BD94120020C0102E40FFFF000010B508461946FFF7A7FF10BD704710B5FFF780FF10BD0000034800210160416078
:406480008160C1607047000094120020024610B5FF20002A0CD0FFF7EFFF064C0321207B0843207310010A21FEF782F82060002010BD00009412002000B504480A21806866
:4064C00048430209FFF7D8FF104600BD941200200248007B8007C00F704700009412002010B54B490868002802DA4A4B01221A70022290430860484800694549C00B403197
:40650000096A0246C907C90F0A4259D0012000F0EDFA3F480E216C30FDF756FC3E4820218430FDF751FC3C4814219C30FDF74CFC3948FF21C131A430FDF746FC3648FF213B
:406540002F31B030FDF740FC33483449BC30FDF73BFC31483249AC30FDF736FC30492E48491CB430FDF730FC2B482E49B830FDF72BFC29482C49CC30FDF726FC26482B4987
:406580000830FDF721FC24482949A830FDF71CFC214828498830FDF717FC1F4826498C30FDF712FC1C481921C9029030FDF70CFCFDF718FCFDF720FDC0B2022812D01FE0E8
:4065C00000290BD0002101420AD0114801216030FDF7FAFB0120FDF7DDFC97E70121F2E7FF2010BD15491648FDF7EEFB14481549001DFDF7E9FB124800210830FDF7E4FB44
:4066000054200449C043891C0870002010BD000000F02E40540E002000002E40320300002F3F00003102000010520000EC160000FA12000031D000003AE3000099560000EB
:4066400080012E40F80F000070B50646581C80B245086D00002408E0304600F0C1F81055000A1119A41C4870A4B2AC42F4D3D80705D0D0182038D15CC47FD454C17770BD1B
:4066800030B50A4C002100195B1E07E0541864782502545C2C430480891C89B29942F5DB994201D1515C018030BD000000102E4010B5FF2000F01AFA0F49FF2048700E48B5
:4066C0001021801D41800121417001700A490020C91C4870FFF704FF04000AD100F02EF907210648FDF762FB044807211830FDF75DFB204610BD0000540E0020CC112E40F9
:4067000070B5002405465B1E0AE0284600F068F8010A161971702D1D1055A41CADB2A4B29C42F2DB9C4203D1284600F059F8105570BD000070B500210A4D5B1E0AE054185B
:4067400064782602545C344346193480001D891C80B289B29942F2DB994202D1515C4019018070BD00102E40F0B50599091FCFB200217E1E0BE0541864782502545C2C4302
:40678000164D45192C80001D891C80B289B2B142F1DBFC0712D01C78515C24020F4A0C4381180C809C785D78001D210280B2294384182180001D80B2D9780CE059781A7872
:4067C00009021143054A84182180001DD9789B78090280B2194380180180F0BD00102E40014940180088704700102E4010B50B490020487000F0A2F8002000F09DF90020B0
:4068000000F08AF907210648FDF7D0FA044807211830FDF7CBFA002010BD0000570E0020CC112E4010B50C48007801280FD100F08BFF00F0DDF8002804D10848016A49089D
:4068400049000162054802213030FDF7BDFA02490020C91E087010BD570E002040F02E4010B50B46062812D006DC01280CD0032801D1FFF7BBFF10BD0A28FCD00B28FAD1B4
:4068800005480078107010BDFFF712FF10BD1146184600F06DF910BD5A0E0020F8B5244DAC6A0127A007234E002816DA307806280ED1286A384328621F480069F9030843A3
:4068C00081B21D481030FDF77FFA042000F00EF9174802212830FDF769FAE00718D000F075FF01280FD1002000F0D4FF062000F0FDF81049FF20C91E48707078002802D1E3
:40690000686B384368630A4801212830FDF74EFAE0050BD53078042802D1052000F0E6F80348FF2101312830FDF740FAF8BD000040F02E40570E002000002E4010B5032185
:406940002348FDF741FA0120FDF716FB20483038406A204C80076178800F890001431C480C38FDF731FA6078002808D0401E022181401820FDF70CFFC000083800E0B820E5
:4069800081B21548FDF720FA1348032109021438FDF71AFA10481149B830FDF715FA612189010F48FDF710FA0D480321001FFDF70BFA0C490C48FDF707FA0B480B496038EF
:4069C000FDF702FA084801218838FDF7FDF910BD70F02E405A0E0020D8102E4090890000041E2E40FF0F000058122E4020900000044800684007400F022801D000207047B7
:406A00000120704700010B4000B5FFF7F1FF002805D009480168C908C900016000BD0748016A490849000162054801690122D2039143016100BD000000010B4040F02E40E5
:406A400000002E400849087806280BD148780749002803D1486B400840004863C86A01221043C86270470000570E002040F02E400148007870470000570E00200248407830
:406A8000022800D001207047540E002000B50300FFF766F8080D050D0B070507090D012000BD032000BD042000BD022000BDFF2000BD0000074A9168D26889B2064B92B26D
:406AC000994204D105498A4201D1012100E000210170704780002E4033D000003FE300000149487070470000570E002010B50446FDF762FA072C01D9FF2C01D10248047037
:406B0000FDF754FA10BD0000570E00200149487070470000540E002010B5064A012805D01921C9021046FDF74FF910BD1D21C902F8E7000090002E4010B50A4A141D0128B6
:406B400008D009491046FDF73FF908492046FDF73BF910BD04491046891CFDF735F90349491DF3E788002E4031D000003AE3000070B50C460546FDF73FFAC0B202280E49D1
:406B8000287804D0FF2810D04C280CD810E0FF2809D10A4AD0680004800F032801D0087807E09069000A553803E00878207070BD4F382070087070BD560E002000002E4031
:406BC000F0B50122002830D000292ED00424420600D00524792342065B06D21800D0641C034600221EE00C2516466E43104D00277519AF720E4F002ABB51696007D0661E05
:406C0000B24209D10B4E86197606760E05E05E06760E8027BE1B00E080269B198919521C2E81D2B2A242DED300221046F0BD00002015002079020000F8B507460020002FF1
:406C400003D100F071FE002827D1154E002421460C2251438D19AA7A012A0DD12A8971586868FCF7D5FF002800D028200021A972002F05D0282803D0641CE4B2062CE6D387
:406C8000641CE1B207E00C224A439219927A012A04D0491CC9B20629F5D3F8BD2820F8BD20150020074900200C2242435218927A012A05D0401CC0B20628F5D30020704757
:406CC0000120704720150020F8B50F000446164609D0184D18496868A04202D94018A04201D38E4201D90120F8BD39462046FDF787FD00281BD0324639462046FDF78FFDFE
:406D0000F0B200210C224A43521913895668F718A74208D90127A41B1B1B9772834206DAC01A1469C0B2491CC9B20629EAD30020F8BD0000201500207902000010B500F07D
:406D40005DF80748054AC16806480C46FDF767FD04492046FFF734FF10BD000079020000600E0020A4120020002070470020054A002902D0012902D002E0506000E09060D8
:406D800000207047600E002070B5084C154608460549A26889182A46FDF741FDA0684019A06028B270BD0000A4120020600E00203EB50A226946FFF7E7FF044606480A2277
:406DC00000686946FDF71CFD002802D00020C0433EBD20463EBD0000600E0020002802D0044A914201D2FF20704703490A61C8600020704779020000600E0020024800217A
:406E00004160816070470000600E002070B5074C15460548626880182A46FFF755FF60684019606028B270BDA4120020600E002010B503490A220968FFF7E8FF10BD0000AB
:406E4000600E002010B50F4A002313600E4A13600E4B18600E4801600E49012008600E490860000290600E490C4808600D4914300860FF381538506000F0BCF800F0CAF94C
:406E8000002010BD8C0E0020740E0020A00E0020A40E0020900E0020800E002068160020840E0020980E0020014610B50020002910D0094B1A689C685118A14209D2586871
:406EC000196080188A0704D08A07920F891A091D196010BD002010BD740E0020F8B50024164E671E321F3D463168136806E01422624310328A58521C1BD0641C9C42F6D345
:406F00006A1C14D02C461422544322460C3288500C214843FFF7C8FF3168002808510AD031680020103408517068401C70602846F8BD2546E4E73846F8BD0000840E002029
:406F4000F3B50026F64381B000281BDB1E490968884217D80299002914D01B4F142204463F1D54432546396810354859401C09D0FDF722F838682F1F4159C359994203DB13
:406F8000FDF714F83046FEBD214608310091465801590C20704308180C220299FDF73FFC0948761C001D0068C159B14200D100260549009A091D865008684159491C41512F
:406FC000FCF7F4FF0020FEBD800E0020002803DB07490968884202D90020C043704704491422091D096850431030085870470000800E0020F0B500200D4A451E0346171F2C
:4070000050600FE014260146714314680E1DA3510C461668083433511668083435511468401C635039688842ECD30020F0BD0000840E0020F3B50026F64381B0002841DB61
:407040002349096888423DD8029900293AD0204F142204463F1D54432546396810354859401C2FD0FCF7A8FF3868415900292BD0211D009146580C21005971430F46C11989
:407080000C220298FDF7CBFB11480021001D0068761C00590C34C0190160416081600C48001D00680159B14200D100260849009A091D865008684159491E4151FCF776FFF9
:4070C0000020FEBD3046FEBDFCF770FFFAE70000800E0020FEB504460D4600201E49089E0860471E009001900290002C11D0486885420ED2002A0CD0002E0AD0642E08D8B2
:4071000008460C3001681C2068430C18207A002801D03846FEBD0120226020721846FFF7DDFE6060401C13D06681A6810A4827610C3067610179A94200D2057100216846BA
:4071400001810A462846029B00F040F82846FEBD00202072DDE700008C0E002038B50124009400F039F838BDFEB50027164EFF433D4600240EE01C20316860430818017ACD
:40718000002906D04068FFF721FF002801D0254603E0641C3079A042EDDA681C12D01C2130684D434419FCF707FF69466068FFF741FF0546FCF7FAFE002DD9D121686846E7
:4071C0008847D5E7FEBD0000980E002038B50024009400F001F838BD1FB500220C49541E0A60002811DB496888420ED808491C220C31096850430818406801A9FFF7A0FE8E
:40720000401C02D0002004B010BD2046FBE700008C0E0020F0B50021114A4D1E174611710C3F0B46BD6016E008461C2460431668041D355114680646235014680836A35520
